{"contracts/OverTrustFunctionsConsumer.sol":{"OverTrustFunctionsConsumer":{"abi":[{"inputs":[],"stateMutability":"nonpayable","type":"constructor"},{"inputs":[],"name":"EmptyArgs","type":"error"},{"inputs":[],"name":"EmptySource","type":"error"},{"inputs":[],"name":"NoInlineSecrets","type":"error"},{"inputs":[],"name":"OnlyRouterCanFulfill","type":"error"},{"inputs":[{"internalType":"bytes32","name":"requestId","type":"bytes32"}],"name":"UnexpectedRequestID","type":"error"},{"anonymous":false,"inputs":[{"indexed":true,"internalType":"address","name":"from","type":"address"},{"indexed":true,"internalType":"address","name":"to","type":"address"}],"name":"OwnershipTransferRequested","type":"event"},{"anonymous":false,"inputs":[{"indexed":true,"internalType":"address","name":"from","type":"address"},{"indexed":true,"internalType":"address","name":"to","type":"address"}],"name":"OwnershipTransferred","type":"event"},{"anonymous":false,"inputs":[{"indexed":true,"internalType":"bytes32","name":"id","type":"bytes32"}],"name":"RequestFulfilled","type":"event"},{"anonymous":false,"inputs":[{"indexed":true,"internalType":"bytes32","name":"id","type":"bytes32"}],"name":"RequestSent","type":"event"},{"anonymous":false,"inputs":[{"indexed":true,"internalType":"bytes32","name":"requestId","type":"bytes32"},{"indexed":false,"internalType":"string","name":"character","type":"string"},{"indexed":false,"internalType":"bytes","name":"response","type":"bytes"},{"indexed":false,"internalType":"bytes","name":"err","type":"bytes"}],"name":"ResponseOffChainData","type":"event"},{"inputs":[],"name":"acceptOwnership","outputs":[],"stateMutability":"nonpayable","type":"function"},{"inputs":[],"name":"debugRetorno","outputs":[{"internalType":"string","name":"","type":"string"}],"stateMutability":"view","type":"function"},{"inputs":[{"internalType":"bytes32","name":"requestId","type":"bytes32"},{"internalType":"bytes","name":"response","type":"bytes"},{"internalType":"bytes","name":"err","type":"bytes"}],"name":"handleOracleFulfillment","outputs":[],"stateMutability":"nonpayable","type":"function"},{"inputs":[],"name":"owner","outputs":[{"internalType":"address","name":"","type":"address"}],"stateMutability":"view","type":"function"},{"inputs":[],"name":"s_lastError","outputs":[{"internalType":"bytes","name":"","type":"bytes"}],"stateMutability":"view","type":"function"},{"inputs":[],"name":"s_lastRequestId","outputs":[{"internalType":"bytes32","name":"","type":"bytes32"}],"stateMutability":"view","type":"function"},{"inputs":[],"name":"s_lastResponse","outputs":[{"internalType":"bytes","name":"","type":"bytes"}],"stateMutability":"view","type":"function"},{"inputs":[{"internalType":"string","name":"arg","type":"string"}],"name":"sendRequestOffChain","outputs":[{"internalType":"bytes32","name":"requestId","type":"bytes32"}],"stateMutability":"nonpayable","type":"function"},{"inputs":[{"internalType":"address","name":"to","type":"address"}],"name":"transferOwnership","outputs":[],"stateMutability":"nonpayable","type":"function"}],"evm":{"bytecode":{"linkReferences":{},"object":"60a060405273a9d587a00a31a52ed70d6026794a8fc5e2f5dcb0600260006101000a81548173ffffffffffffffffffffffffffffffffffffffff021916908373ffffffffffffffffffffffffffffffffffffffff1602179055507f66756e2d6176616c616e6368652d66756a692d3100000000000000000000000060001b600355620493e0600860006101000a81548163ffffffff021916908363ffffffff16021790555060405180610180016040528061014a815260200162002d6261014a913960099081620000d19190620005e7565b50348015620000df57600080fd5b5033806000600260009054906101000a900473ffffffffffffffffffffffffffffffffffffffff168073ffffffffffffffffffffffffffffffffffffffff1660808173ffffffffffffffffffffffffffffffffffffffff168152505050600073ffffffffffffffffffffffffffffffffffffffff168273ffffffffffffffffffffffffffffffffffffffff1603620001ae576040517f08c379a0000000000000000000000000000000000000000000000000000000008152600401620001a5906200072f565b60405180910390fd5b816000806101000a81548173ffffffffffffffffffffffffffffffffffffffff021916908373ffffffffffffffffffffffffffffffffffffffff160217905550600073ffffffffffffffffffffffffffffffffffffffff168173ffffffffffffffffffffffffffffffffffffffff1614620002355762000234816200023e60201b60201c565b5b505050620007c3565b3373ffffffffffffffffffffffffffffffffffffffff168173ffffffffffffffffffffffffffffffffffffffff1603620002af576040517f08c379a0000000000000000000000000000000000000000000000000000000008152600401620002a690620007a1565b60405180910390fd5b80600160006101000a81548173ffffffffffffffffffffffffffffffffffffffff021916908373ffffffffffffffffffffffffffffffffffffffff1602179055508073ffffffffffffffffffffffffffffffffffffffff1660008054906101000a900473ffffffffffffffffffffffffffffffffffffffff1673ffffffffffffffffffffffffffffffffffffffff167fed8889f560326eb138920d842192f0eb3dd22b4f139c87a2c57538e05bae127860405160405180910390a350565b600081519050919050565b7f4e487b7100000000000000000000000000000000000000000000000000000000600052604160045260246000fd5b7f4e487b7100000000000000000000000000000000000000000000000000000000600052602260045260246000fd5b60006002820490506001821680620003ef57607f821691505b602082108103620004055762000404620003a7565b5b50919050565b60008190508160005260206000209050919050565b60006020601f8301049050919050565b600082821b905092915050565b6000600883026200046f7fffffffffffffffffffffffffffffffffffffffffffffffffffffffffffffffff8262000430565b6200047b868362000430565b95508019841693508086168417925050509392505050565b6000819050919050565b6000819050919050565b6000620004c8620004c2620004bc8462000493565b6200049d565b62000493565b9050919050565b6000819050919050565b620004e483620004a7565b620004fc620004f382620004cf565b8484546200043d565b825550505050565b600090565b6200051362000504565b62000520818484620004d9565b505050565b5b8181101562000548576200053c60008262000509565b60018101905062000526565b5050565b601f821115620005975762000561816200040b565b6200056c8462000420565b810160208510156200057c578190505b620005946200058b8562000420565b83018262000525565b50505b505050565b600082821c905092915050565b6000620005bc600019846008026200059c565b1980831691505092915050565b6000620005d78383620005a9565b9150826002028217905092915050565b620005f2826200036d565b67ffffffffffffffff8111156200060e576200060d62000378565b5b6200061a8254620003d6565b620006278282856200054c565b600060209050601f8311600181146200065f57600084156200064a578287015190505b620006568582620005c9565b865550620006c6565b601f1984166200066f866200040b565b60005b82811015620006995784890151825560018201915060208501945060208101905062000672565b86831015620006b95784890151620006b5601f891682620005a9565b8355505b6001600288020188555050505b505050505050565b600082825260208201905092915050565b7f43616e6e6f7420736574206f776e657220746f207a65726f0000000000000000600082015250565b600062000717601883620006ce565b91506200072482620006df565b602082019050919050565b600060208201905081810360008301526200074a8162000708565b9050919050565b7f43616e6e6f74207472616e7366657220746f2073656c66000000000000000000600082015250565b600062000789601783620006ce565b9150620007968262000751565b602082019050919050565b60006020820190508181036000830152620007bc816200077a565b9050919050565b60805161257c620007e6600039600081816101a20152610d0c015261257c6000f3fe608060405234801561001057600080fd5b50600436106100935760003560e01c806379ba50971161006657806379ba5097146101205780638da5cb5b1461012a578063b1e2174914610148578063cf40f24914610166578063f2fde38b1461018457610093565b80630ca76175146100985780633944ea3a146100b45780633e3ede5a146100d25780634b0795a814610102575b600080fd5b6100b260048036038101906100ad9190611777565b6101a0565b005b6100bc610262565b6040516100c99190611881565b60405180910390f35b6100ec60048036038101906100e79190611944565b6102f0565b6040516100f9919061199c565b60405180910390f35b61010a610461565b6040516101179190611881565b60405180910390f35b6101286104ef565b005b610132610684565b60405161013f91906119f8565b60405180910390f35b6101506106ad565b60405161015d919061199c565b60405180910390f35b61016e6106b3565b60405161017b9190611a68565b60405180910390f35b61019e60048036038101906101999190611ab6565b610741565b005b7f000000000000000000000000000000000000000000000000000000000000000073ffffffffffffffffffffffffffffffffffffffff163373ffffffffffffffffffffffffffffffffffffffff1614610225576040517fc6829f8300000000000000000000000000000000000000000000000000000000815260040160405180910390fd5b610230838383610755565b827f85e1543bf2f84fe80c6badbce3648c8539ad1df4d2b3d822938ca0538be727e660405160405180910390a2505050565b6005805461026f90611b12565b80601f016020809104026020016040519081016040528092919081815260200182805461029b90611b12565b80156102e85780601f106102bd576101008083540402835291602001916102e8565b820191906000526020600020905b8154815290600101906020018083116102cb57829003601f168201915b505050505081565b60006102fa61080e565b61030261153b565b61039f6009805461031290611b12565b80601f016020809104026020016040519081016040528092919081815260200182805461033e90611b12565b801561038b5780601f106103605761010080835404028352916020019161038b565b820191906000526020600020905b81548152906001019060200180831161036e57829003601f168201915b50505050508261089e90919063ffffffff16565b6000600167ffffffffffffffff8111156103bc576103bb61164c565b5b6040519080825280602002602001820160405280156103ef57816020015b60608152602001906001900390816103da5790505b509050838160008151811061040757610406611b43565b5b602002602001018190525061042581836108af90919063ffffffff16565b61044f610431836108f7565b612057600860009054906101000a900463ffffffff16600354610d07565b60048190555060045492505050919050565b6006805461046e90611b12565b80601f016020809104026020016040519081016040528092919081815260200182805461049a90611b12565b80156104e75780601f106104bc576101008083540402835291602001916104e7565b820191906000526020600020905b8154815290600101906020018083116104ca57829003601f168201915b505050505081565b600160009054906101000a900473ffffffffffffffffffffffffffffffffffffffff1673ffffffffffffffffffffffffffffffffffffffff163373ffffffffffffffffffffffffffffffffffffffff161461057f576040517f08c379a000000000000000000000000000000000000000000000000000000000815260040161057690611bbe565b60405180910390fd5b60008060009054906101000a900473ffffffffffffffffffffffffffffffffffffffff169050336000806101000a81548173ffffffffffffffffffffffffffffffffffffffff021916908373ffffffffffffffffffffffffffffffffffffffff1602179055506000600160006101000a81548173ffffffffffffffffffffffffffffffffffffffff021916908373ffffffffffffffffffffffffffffffffffffffff1602179055503373ffffffffffffffffffffffffffffffffffffffff168173ffffffffffffffffffffffffffffffffffffffff167f8be0079c531659141344cd1fd0a4f28419497f9722a3daafe3b4186f6b6457e060405160405180910390a350565b60008060009054906101000a900473ffffffffffffffffffffffffffffffffffffffff16905090565b60045481565b600780546106c090611b12565b80601f01602080910402602001604051908101604052809291908181526020018280546106ec90611b12565b80156107395780601f1061070e57610100808354040283529160200191610739565b820191906000526020600020905b81548152906001019060200180831161071c57829003601f168201915b505050505081565b61074961080e565b61075281610dea565b50565b826004541461079b57826040517fd068bf5b000000000000000000000000000000000000000000000000000000008152600401610792919061199c565b60405180910390fd5b81600590816107aa9190611d94565b5080600690816107ba9190611d94565b5081600790816107ca9190611ec1565b50827f36e18f278c0bc4e053ceff5b445200072b19f094eabc06099380b90d3a1de297836005600660405161080193929190612017565b60405180910390a2505050565b60008054906101000a900473ffffffffffffffffffffffffffffffffffffffff1673ffffffffffffffffffffffffffffffffffffffff163373ffffffffffffffffffffffffffffffffffffffff161461089c576040517f08c379a0000000000000000000000000000000000000000000000000000000008152600401610893906120af565b60405180910390fd5b565b6108ab8260008084610f16565b5050565b60008151036108ea576040517ffe936cb700000000000000000000000000000000000000000000000000000000815260040160405180910390fd5b808260a001819052505050565b60606000610906610100610fc0565b90506109506040518060400160405280600c81526020017f636f64654c6f636174696f6e000000000000000000000000000000000000000081525082610fe790919063ffffffff16565b6109798360000151600281111561096a576109696120cf565b5b8261101090919063ffffffff16565b6109c16040518060400160405280600881526020017f6c616e677561676500000000000000000000000000000000000000000000000081525082610fe790919063ffffffff16565b6109ea836040015160008111156109db576109da6120cf565b5b8261101090919063ffffffff16565b610a326040518060400160405280600681526020017f736f75726365000000000000000000000000000000000000000000000000000081525082610fe790919063ffffffff16565b610a49836060015182610fe790919063ffffffff16565b60008360a00151511115610aff57610a9f6040518060400160405280600481526020017f617267730000000000000000000000000000000000000000000000000000000081525082610fe790919063ffffffff16565b610aa881611060565b60005b8360a0015151811015610af457610ae98460a001518281518110610ad257610ad1611b43565b5b602002602001015183610fe790919063ffffffff16565b806001019050610aab565b50610afe81611088565b5b60008360800151511115610c405760006002811115610b2157610b206120cf565b5b83602001516002811115610b3857610b376120cf565b5b03610b6f576040517fa80d31f700000000000000000000000000000000000000000000000000000000815260040160405180910390fd5b610bb76040518060400160405280600f81526020017f736563726574734c6f636174696f6e000000000000000000000000000000000081525082610fe790919063ffffffff16565b610be083602001516002811115610bd157610bd06120cf565b5b8261101090919063ffffffff16565b610c286040518060400160405280600781526020017f736563726574730000000000000000000000000000000000000000000000000081525082610fe790919063ffffffff16565b610c3f8360800151826110b090919063ffffffff16565b5b60008360c00151511115610cf657610c966040518060400160405280600981526020017f627974657341726773000000000000000000000000000000000000000000000081525082610fe790919063ffffffff16565b610c9f81611060565b60005b8360c0015151811015610ceb57610ce08460c001518281518110610cc957610cc8611b43565b5b6020026020010151836110b090919063ffffffff16565b806001019050610ca2565b50610cf581611088565b5b806000015160000151915050919050565b6000807f000000000000000000000000000000000000000000000000000000000000000073ffffffffffffffffffffffffffffffffffffffff1663461d27628688600188886040518663ffffffff1660e01b8152600401610d6c95949392919061215d565b6020604051808303816000875af1158015610d8b573d6000803e3d6000fd5b505050506040513d601f19601f82011682018060405250810190610daf91906121cc565b9050807f1131472297a800fee664d1d89cfa8f7676ff07189ecc53f80bbb5f4969099db860405160405180910390a280915050949350505050565b3373ffffffffffffffffffffffffffffffffffffffff168173ffffffffffffffffffffffffffffffffffffffff1603610e58576040517f08c379a0000000000000000000000000000000000000000000000000000000008152600401610e4f90612245565b60405180910390fd5b80600160006101000a81548173ffffffffffffffffffffffffffffffffffffffff021916908373ffffffffffffffffffffffffffffffffffffffff1602179055508073ffffffffffffffffffffffffffffffffffffffff1660008054906101000a900473ffffffffffffffffffffffffffffffffffffffff1673ffffffffffffffffffffffffffffffffffffffff167fed8889f560326eb138920d842192f0eb3dd22b4f139c87a2c57538e05bae127860405160405180910390a350565b6000815103610f51576040517f22ce3edd00000000000000000000000000000000000000000000000000000000815260040160405180910390fd5b8284600001906002811115610f6957610f686120cf565b5b90816002811115610f7d57610f7c6120cf565b5b815250508184604001906000811115610f9957610f986120cf565b5b90816000811115610fad57610fac6120cf565b5b8152505080846060018190525050505050565b610fc86115ad565b610fd68160000151836110d9565b506000816020018181525050919050565b610ff48260038351611152565b61100b8183600001516112fb90919063ffffffff16565b505050565b61103260026005600660ff16901b17836000015161131790919063ffffffff16565b5061105c82826040516020016110489190612274565b6040516020818303038152906040526110b0565b5050565b61106b816004611381565b60018160200181815161107e91906122be565b9150818152505050565b611093816007611381565b6001816020018181516110a691906122f2565b9150818152505050565b6110bd8260028351611152565b6110d48183600001516112fb90919063ffffffff16565b505050565b6110e16115cd565b60006020836110f09190612355565b1461111c576020826111029190612355565b602061110e91906122f2565b8261111991906122be565b91505b81836020018181525050604051808452600081528281016020018181101561114357600080fd5b80604052505082905092915050565b60178167ffffffffffffffff161161118d576111878160058460ff16901b60ff1617846000015161131790919063ffffffff16565b506112f6565b60ff8167ffffffffffffffff16116111eb576111c0601860058460ff16901b17846000015161131790919063ffffffff16565b506111e58167ffffffffffffffff16600185600001516113a79092919063ffffffff16565b506112f5565b61ffff8167ffffffffffffffff161161124a5761121f601960058460ff16901b17846000015161131790919063ffffffff16565b506112448167ffffffffffffffff16600285600001516113a79092919063ffffffff16565b506112f4565b63ffffffff8167ffffffffffffffff16116112ab57611280601a60058460ff16901b17846000015161131790919063ffffffff16565b506112a58167ffffffffffffffff16600485600001516113a79092919063ffffffff16565b506112f3565b6112cc601b60058460ff16901b17846000015161131790919063ffffffff16565b506112f18167ffffffffffffffff16600885600001516113a79092919063ffffffff16565b505b5b5b5b505050565b6113036115cd565b61130f83838451611434565b905092915050565b61131f6115cd565b60008360000151519050600060018261133891906122be565b90508460200151821061135c5761135b856002836113569190612386565b611517565b5b84516020838201018581538151831115611374578282525b5050849250505092915050565b6113a2601f60058360ff16901b17836000015161131790919063ffffffff16565b505050565b6113af6115cd565b60008460000151519050600081846113c791906122be565b905085602001518111156113ec576113eb866002836113e69190612386565b611517565b5b60006001856101006113fe91906124fb565b61140891906122f2565b905086518281018783198251161781528151841115611425578382525b50508693505050509392505050565b61143c6115cd565b825182111561144a57600080fd5b600084600001515190506000838261146291906122be565b9050856020015181111561148757611486866002836114819190612386565b611517565b5b600080875180518560208301019350808511156114a2578482525b60208901925050505b602086106114e957805182526020826114c491906122be565b91506020816114d391906122be565b90506020866114e291906122f2565b95506114ab565b60006001876020036101000a0390508019825116818451168181178552505050879450505050509392505050565b60008260000151905061152a83836110d9565b5061153583826112fb565b50505050565b6040518060e001604052806000600281111561155a576115596120cf565b5b815260200160006002811115611573576115726120cf565b5b815260200160008081111561158b5761158a6120cf565b5b8152602001606081526020016060815260200160608152602001606081525090565b60405180604001604052806115c06115cd565b8152602001600081525090565b604051806040016040528060608152602001600081525090565b6000604051905090565b600080fd5b600080fd5b6000819050919050565b61160e816115fb565b811461161957600080fd5b50565b60008135905061162b81611605565b92915050565b600080fd5b600080fd5b6000601f19601f8301169050919050565b7f4e487b7100000000000000000000000000000000000000000000000000000000600052604160045260246000fd5b6116848261163b565b810181811067ffffffffffffffff821117156116a3576116a261164c565b5b80604052505050565b60006116b66115e7565b90506116c2828261167b565b919050565b600067ffffffffffffffff8211156116e2576116e161164c565b5b6116eb8261163b565b9050602081019050919050565b82818337600083830152505050565b600061171a611715846116c7565b6116ac565b90508281526020810184848401111561173657611735611636565b5b6117418482856116f8565b509392505050565b600082601f83011261175e5761175d611631565b5b813561176e848260208601611707565b91505092915050565b6000806000606084860312156117905761178f6115f1565b5b600061179e8682870161161c565b935050602084013567ffffffffffffffff8111156117bf576117be6115f6565b5b6117cb86828701611749565b925050604084013567ffffffffffffffff8111156117ec576117eb6115f6565b5b6117f886828701611749565b9150509250925092565b600081519050919050565b600082825260208201905092915050565b60005b8381101561183c578082015181840152602081019050611821565b60008484015250505050565b600061185382611802565b61185d818561180d565b935061186d81856020860161181e565b6118768161163b565b840191505092915050565b6000602082019050818103600083015261189b8184611848565b905092915050565b600067ffffffffffffffff8211156118be576118bd61164c565b5b6118c78261163b565b9050602081019050919050565b60006118e76118e2846118a3565b6116ac565b90508281526020810184848401111561190357611902611636565b5b61190e8482856116f8565b509392505050565b600082601f83011261192b5761192a611631565b5b813561193b8482602086016118d4565b91505092915050565b60006020828403121561195a576119596115f1565b5b600082013567ffffffffffffffff811115611978576119776115f6565b5b61198484828501611916565b91505092915050565b611996816115fb565b82525050565b60006020820190506119b1600083018461198d565b92915050565b600073ffffffffffffffffffffffffffffffffffffffff82169050919050565b60006119e2826119b7565b9050919050565b6119f2816119d7565b82525050565b6000602082019050611a0d60008301846119e9565b92915050565b600081519050919050565b600082825260208201905092915050565b6000611a3a82611a13565b611a448185611a1e565b9350611a5481856020860161181e565b611a5d8161163b565b840191505092915050565b60006020820190508181036000830152611a828184611a2f565b905092915050565b611a93816119d7565b8114611a9e57600080fd5b50565b600081359050611ab081611a8a565b92915050565b600060208284031215611acc57611acb6115f1565b5b6000611ada84828501611aa1565b91505092915050565b7f4e487b7100000000000000000000000000000000000000000000000000000000600052602260045260246000fd5b60006002820490506001821680611b2a57607f821691505b602082108103611b3d57611b3c611ae3565b5b50919050565b7f4e487b7100000000000000000000000000000000000000000000000000000000600052603260045260246000fd5b7f4d7573742062652070726f706f736564206f776e657200000000000000000000600082015250565b6000611ba8601683611a1e565b9150611bb382611b72565b602082019050919050565b60006020820190508181036000830152611bd781611b9b565b9050919050565b60008190508160005260206000209050919050565b60006020601f8301049050919050565b600082821b905092915050565b600060088302611c407fffffffffffffffffffffffffffffffffffffffffffffffffffffffffffffffff82611c03565b611c4a8683611c03565b95508019841693508086168417925050509392505050565b6000819050919050565b6000819050919050565b6000611c91611c8c611c8784611c62565b611c6c565b611c62565b9050919050565b6000819050919050565b611cab83611c76565b611cbf611cb782611c98565b848454611c10565b825550505050565b600090565b611cd4611cc7565b611cdf818484611ca2565b505050565b5b81811015611d0357611cf8600082611ccc565b600181019050611ce5565b5050565b601f821115611d4857611d1981611bde565b611d2284611bf3565b81016020851015611d31578190505b611d45611d3d85611bf3565b830182611ce4565b50505b505050565b600082821c905092915050565b6000611d6b60001984600802611d4d565b1980831691505092915050565b6000611d848383611d5a565b9150826002028217905092915050565b611d9d82611802565b67ffffffffffffffff811115611db657611db561164c565b5b611dc08254611b12565b611dcb828285611d07565b600060209050601f831160018114611dfe5760008415611dec578287015190505b611df68582611d78565b865550611e5e565b601f198416611e0c86611bde565b60005b82811015611e3457848901518255600182019150602085019450602081019050611e0f565b86831015611e515784890151611e4d601f891682611d5a565b8355505b6001600288020188555050505b505050505050565b60008190508160005260206000209050919050565b601f821115611ebc57611e8d81611e66565b611e9684611bf3565b81016020851015611ea5578190505b611eb9611eb185611bf3565b830182611ce4565b50505b505050565b611eca82611a13565b67ffffffffffffffff811115611ee357611ee261164c565b5b611eed8254611b12565b611ef8828285611e7b565b600060209050601f831160018114611f2b5760008415611f19578287015190505b611f238582611d78565b865550611f8b565b601f198416611f3986611e66565b60005b82811015611f6157848901518255600182019150602085019450602081019050611f3c565b86831015611f7e5784890151611f7a601f891682611d5a565b8355505b6001600288020188555050505b505050505050565b60008154611fa081611b12565b611faa818661180d565b94506001821660008114611fc55760018114611fdb5761200e565b60ff19831686528115156020028601935061200e565b611fe485611bde565b60005b8381101561200657815481890152600182019150602081019050611fe7565b808801955050505b50505092915050565b600060608201905081810360008301526120318186611a2f565b905081810360208301526120458185611f93565b905081810360408301526120598184611f93565b9050949350505050565b7f4f6e6c792063616c6c61626c65206279206f776e657200000000000000000000600082015250565b6000612099601683611a1e565b91506120a482612063565b602082019050919050565b600060208201905081810360008301526120c88161208c565b9050919050565b7f4e487b7100000000000000000000000000000000000000000000000000000000600052602160045260246000fd5b600067ffffffffffffffff82169050919050565b61211b816120fe565b82525050565b600061ffff82169050919050565b61213881612121565b82525050565b600063ffffffff82169050919050565b6121578161213e565b82525050565b600060a0820190506121726000830188612112565b81810360208301526121848187611848565b9050612193604083018661212f565b6121a0606083018561214e565b6121ad608083018461198d565b9695505050505050565b6000815190506121c681611605565b92915050565b6000602082840312156121e2576121e16115f1565b5b60006121f0848285016121b7565b91505092915050565b7f43616e6e6f74207472616e7366657220746f2073656c66000000000000000000600082015250565b600061222f601783611a1e565b915061223a826121f9565b602082019050919050565b6000602082019050818103600083015261225e81612222565b9050919050565b61226e81611c62565b82525050565b60006020820190506122896000830184612265565b92915050565b7f4e487b7100000000000000000000000000000000000000000000000000000000600052601160045260246000fd5b60006122c982611c62565b91506122d483611c62565b92508282019050808211156122ec576122eb61228f565b5b92915050565b60006122fd82611c62565b915061230883611c62565b92508282039050818111156123205761231f61228f565b5b92915050565b7f4e487b7100000000000000000000000000000000000000000000000000000000600052601260045260246000fd5b600061236082611c62565b915061236b83611c62565b92508261237b5761237a612326565b5b828206905092915050565b600061239182611c62565b915061239c83611c62565b92508282026123aa81611c62565b915082820484148315176123c1576123c061228f565b5b5092915050565b60008160011c9050919050565b6000808291508390505b600185111561241f578086048111156123fb576123fa61228f565b5b600185161561240a5780820291505b8081029050612418856123c8565b94506123df565b94509492505050565b60008261243857600190506124f4565b8161244657600090506124f4565b816001811461245c576002811461246657612495565b60019150506124f4565b60ff8411156124785761247761228f565b5b8360020a91508482111561248f5761248e61228f565b5b506124f4565b5060208310610133831016604e8410600b84101617156124ca5782820a9050838111156124c5576124c461228f565b5b6124f4565b6124d784848460016123d5565b925090508184048111156124ee576124ed61228f565b5b81810290505b9392505050565b600061250682611c62565b915061251183611c62565b925061253e7fffffffffffffffffffffffffffffffffffffffffffffffffffffffffffffffff8484612428565b90509291505056fea2646970667358221220a603940f00d788a135becab53984fd7c15bfd46828263e47ea9179bb5839d33664736f6c63430008180033636f6e737420706172616d203d20617267735b305d3b636f6e737420617069526573706f6e7365203d2061776169742046756e6374696f6e732e6d616b654874747052657175657374287b75726c3a206068747470733a2f2f6170692e6a736f6e62696e2e696f2f76332f622f247b706172616d7d2f607d293b69662028617069526573706f6e73652e6572726f7229207b7468726f77204572726f72282752657175657374206661696c656427293b7d636f6e7374207b2064617461207d203d20617069526573706f6e73653b636f6e7374207265746f726e6f203d202727202b20646174612e7265636f72642e526174696e67202b20277c27202b204a534f4e2e737472696e6769667928646174612e7265636f72642e506172746e657273293b72657475726e2046756e6374696f6e732e656e636f6465537472696e67287265746f726e6f293b","opcodes":"PUSH1 0xA0 PUSH1 0x40 MSTORE PUSH20 0xA9D587A00A31A52ED70D6026794A8FC5E2F5DCB0 PUSH1 0x2 PUSH1 0x0 PUSH2 0x100 EXP DUP2 SLOAD DUP2 PUSH20 0xFFFFFFFFFFFFFFFFFFFFFFFFFFFFFFFFFFFFFFFF MUL NOT AND SWAP1 DUP4 PUSH20 0xFFFFFFFFFFFFFFFFFFFFFFFFFFFFFFFFFFFFFFFF AND MUL OR SWAP1 SSTORE POP PUSH32 0x66756E2D6176616C616E6368652D66756A692D31000000000000000000000000 PUSH1 0x0 SHL PUSH1 0x3 SSTORE PUSH3 0x493E0 PUSH1 0x8 PUSH1 0x0 PUSH2 0x100 EXP DUP2 SLOAD DUP2 PUSH4 0xFFFFFFFF MUL NOT AND SWAP1 DUP4 PUSH4 0xFFFFFFFF AND MUL OR SWAP1 SSTORE POP PUSH1 0x40 MLOAD DUP1 PUSH2 0x180 ADD PUSH1 0x40 MSTORE DUP1 PUSH2 0x14A DUP2 MSTORE PUSH1 0x20 ADD PUSH3 0x2D62 PUSH2 0x14A SWAP2 CODECOPY PUSH1 0x9 SWAP1 DUP2 PUSH3 0xD1 SWAP2 SWAP1 PUSH3 0x5E7 JUMP JUMPDEST POP CALLVALUE DUP1 ISZERO PUSH3 0xDF JUMPI PUSH1 0x0 DUP1 REVERT JUMPDEST POP CALLER DUP1 PUSH1 0x0 PUSH1 0x2 PUSH1 0x0 SWAP1 SLOAD SWAP1 PUSH2 0x100 EXP SWAP1 DIV PUSH20 0xFFFFFFFFFFFFFFFFFFFFFFFFFFFFFFFFFFFFFFFF AND DUP1 PUSH20 0xFFFFFFFFFFFFFFFFFFFFFFFFFFFFFFFFFFFFFFFF AND PUSH1 0x80 DUP2 PUSH20 0xFFFFFFFFFFFFFFFFFFFFFFFFFFFFFFFFFFFFFFFF AND DUP2 MSTORE POP POP POP PUSH1 0x0 PUSH20 0xFFFFFFFFFFFFFFFFFFFFFFFFFFFFFFFFFFFFFFFF AND DUP3 PUSH20 0xFFFFFFFFFFFFFFFFFFFFFFFFFFFFFFFFFFFFFFFF AND SUB PUSH3 0x1AE JUMPI PUSH1 0x40 MLOAD PUSH32 0x8C379A000000000000000000000000000000000000000000000000000000000 DUP2 MSTORE PUSH1 0x4 ADD PUSH3 0x1A5 SWAP1 PUSH3 0x72F JUMP JUMPDEST PUSH1 0x40 MLOAD DUP1 SWAP2 SUB SWAP1 REVERT JUMPDEST DUP2 PUSH1 0x0 DUP1 PUSH2 0x100 EXP DUP2 SLOAD DUP2 PUSH20 0xFFFFFFFFFFFFFFFFFFFFFFFFFFFFFFFFFFFFFFFF MUL NOT AND SWAP1 DUP4 PUSH20 0xFFFFFFFFFFFFFFFFFFFFFFFFFFFFFFFFFFFFFFFF AND MUL OR SWAP1 SSTORE POP PUSH1 0x0 PUSH20 0xFFFFFFFFFFFFFFFFFFFFFFFFFFFFFFFFFFFFFFFF AND DUP2 PUSH20 0xFFFFFFFFFFFFFFFFFFFFFFFFFFFFFFFFFFFFFFFF AND EQ PUSH3 0x235 JUMPI PUSH3 0x234 DUP2 PUSH3 0x23E PUSH1 0x20 SHL PUSH1 0x20 SHR JUMP JUMPDEST JUMPDEST POP POP POP PUSH3 0x7C3 JUMP JUMPDEST CALLER PUSH20 0xFFFFFFFFFFFFFFFFFFFFFFFFFFFFFFFFFFFFFFFF AND DUP2 PUSH20 0xFFFFFFFFFFFFFFFFFFFFFFFFFFFFFFFFFFFFFFFF AND SUB PUSH3 0x2AF JUMPI PUSH1 0x40 MLOAD PUSH32 0x8C379A000000000000000000000000000000000000000000000000000000000 DUP2 MSTORE PUSH1 0x4 ADD PUSH3 0x2A6 SWAP1 PUSH3 0x7A1 JUMP JUMPDEST PUSH1 0x40 MLOAD DUP1 SWAP2 SUB SWAP1 REVERT JUMPDEST DUP1 PUSH1 0x1 PUSH1 0x0 PUSH2 0x100 EXP DUP2 SLOAD DUP2 PUSH20 0xFFFFFFFFFFFFFFFFFFFFFFFFFFFFFFFFFFFFFFFF MUL NOT AND SWAP1 DUP4 PUSH20 0xFFFFFFFFFFFFFFFFFFFFFFFFFFFFFFFFFFFFFFFF AND MUL OR SWAP1 SSTORE POP DUP1 PUSH20 0xFFFFFFFFFFFFFFFFFFFFFFFFFFFFFFFFFFFFFFFF AND PUSH1 0x0 DUP1 SLOAD SWAP1 PUSH2 0x100 EXP SWAP1 DIV PUSH20 0xFFFFFFFFFFFFFFFFFFFFFFFFFFFFFFFFFFFFFFFF AND PUSH20 0xFFFFFFFFFFFFFFFFFFFFFFFFFFFFFFFFFFFFFFFF AND PUSH32 0xED8889F560326EB138920D842192F0EB3DD22B4F139C87A2C57538E05BAE1278 PUSH1 0x40 MLOAD PUSH1 0x40 MLOAD DUP1 SWAP2 SUB SWAP1 LOG3 POP JUMP JUMPDEST PUSH1 0x0 DUP2 MLOAD SWAP1 POP SWAP2 SWAP1 POP JUMP JUMPDEST PUSH32 0x4E487B7100000000000000000000000000000000000000000000000000000000 PUSH1 0x0 MSTORE PUSH1 0x41 PUSH1 0x4 MSTORE PUSH1 0x24 PUSH1 0x0 REVERT JUMPDEST PUSH32 0x4E487B7100000000000000000000000000000000000000000000000000000000 PUSH1 0x0 MSTORE PUSH1 0x22 PUSH1 0x4 MSTORE PUSH1 0x24 PUSH1 0x0 REVERT JUMPDEST PUSH1 0x0 PUSH1 0x2 DUP3 DIV SWAP1 POP PUSH1 0x1 DUP3 AND DUP1 PUSH3 0x3EF JUMPI PUSH1 0x7F DUP3 AND SWAP2 POP JUMPDEST PUSH1 0x20 DUP3 LT DUP2 SUB PUSH3 0x405 JUMPI PUSH3 0x404 PUSH3 0x3A7 JUMP JUMPDEST JUMPDEST POP SWAP2 SWAP1 POP JUMP JUMPDEST PUSH1 0x0 DUP2 SWAP1 POP DUP2 PUSH1 0x0 MSTORE PUSH1 0x20 PUSH1 0x0 KECCAK256 SWAP1 POP SWAP2 SWAP1 POP JUMP JUMPDEST PUSH1 0x0 PUSH1 0x20 PUSH1 0x1F DUP4 ADD DIV SWAP1 POP SWAP2 SWAP1 POP JUMP JUMPDEST PUSH1 0x0 DUP3 DUP3 SHL SWAP1 POP SWAP3 SWAP2 POP POP JUMP JUMPDEST PUSH1 0x0 PUSH1 0x8 DUP4 MUL PUSH3 0x46F PUSH32 0xFFFFFFFFFFFFFFFFFFFFFFFFFFFFFFFFFFFFFFFFFFFFFFFFFFFFFFFFFFFFFFFF DUP3 PUSH3 0x430 JUMP JUMPDEST PUSH3 0x47B DUP7 DUP4 PUSH3 0x430 JUMP JUMPDEST SWAP6 POP DUP1 NOT DUP5 AND SWAP4 POP DUP1 DUP7 AND DUP5 OR SWAP3 POP POP POP SWAP4 SWAP3 POP POP POP JUMP JUMPDEST PUSH1 0x0 DUP2 SWAP1 POP SWAP2 SWAP1 POP JUMP JUMPDEST PUSH1 0x0 DUP2 SWAP1 POP SWAP2 SWAP1 POP JUMP JUMPDEST PUSH1 0x0 PUSH3 0x4C8 PUSH3 0x4C2 PUSH3 0x4BC DUP5 PUSH3 0x493 JUMP JUMPDEST PUSH3 0x49D JUMP JUMPDEST PUSH3 0x493 JUMP JUMPDEST SWAP1 POP SWAP2 SWAP1 POP JUMP JUMPDEST PUSH1 0x0 DUP2 SWAP1 POP SWAP2 SWAP1 POP JUMP JUMPDEST PUSH3 0x4E4 DUP4 PUSH3 0x4A7 JUMP JUMPDEST PUSH3 0x4FC PUSH3 0x4F3 DUP3 PUSH3 0x4CF JUMP JUMPDEST DUP5 DUP5 SLOAD PUSH3 0x43D JUMP JUMPDEST DUP3 SSTORE POP POP POP POP JUMP JUMPDEST PUSH1 0x0 SWAP1 JUMP JUMPDEST PUSH3 0x513 PUSH3 0x504 JUMP JUMPDEST PUSH3 0x520 DUP2 DUP5 DUP5 PUSH3 0x4D9 JUMP JUMPDEST POP POP POP JUMP JUMPDEST JUMPDEST DUP2 DUP2 LT ISZERO PUSH3 0x548 JUMPI PUSH3 0x53C PUSH1 0x0 DUP3 PUSH3 0x509 JUMP JUMPDEST PUSH1 0x1 DUP2 ADD SWAP1 POP PUSH3 0x526 JUMP JUMPDEST POP POP JUMP JUMPDEST PUSH1 0x1F DUP3 GT ISZERO PUSH3 0x597 JUMPI PUSH3 0x561 DUP2 PUSH3 0x40B JUMP JUMPDEST PUSH3 0x56C DUP5 PUSH3 0x420 JUMP JUMPDEST DUP2 ADD PUSH1 0x20 DUP6 LT ISZERO PUSH3 0x57C JUMPI DUP2 SWAP1 POP JUMPDEST PUSH3 0x594 PUSH3 0x58B DUP6 PUSH3 0x420 JUMP JUMPDEST DUP4 ADD DUP3 PUSH3 0x525 JUMP JUMPDEST POP POP JUMPDEST POP POP POP JUMP JUMPDEST PUSH1 0x0 DUP3 DUP3 SHR SWAP1 POP SWAP3 SWAP2 POP POP JUMP JUMPDEST PUSH1 0x0 PUSH3 0x5BC PUSH1 0x0 NOT DUP5 PUSH1 0x8 MUL PUSH3 0x59C JUMP JUMPDEST NOT DUP1 DUP4 AND SWAP2 POP POP SWAP3 SWAP2 POP POP JUMP JUMPDEST PUSH1 0x0 PUSH3 0x5D7 DUP4 DUP4 PUSH3 0x5A9 JUMP JUMPDEST SWAP2 POP DUP3 PUSH1 0x2 MUL DUP3 OR SWAP1 POP SWAP3 SWAP2 POP POP JUMP JUMPDEST PUSH3 0x5F2 DUP3 PUSH3 0x36D JUMP JUMPDEST PUSH8 0xFFFFFFFFFFFFFFFF DUP2 GT ISZERO PUSH3 0x60E JUMPI PUSH3 0x60D PUSH3 0x378 JUMP JUMPDEST JUMPDEST PUSH3 0x61A DUP3 SLOAD PUSH3 0x3D6 JUMP JUMPDEST PUSH3 0x627 DUP3 DUP3 DUP6 PUSH3 0x54C JUMP JUMPDEST PUSH1 0x0 PUSH1 0x20 SWAP1 POP PUSH1 0x1F DUP4 GT PUSH1 0x1 DUP2 EQ PUSH3 0x65F JUMPI PUSH1 0x0 DUP5 ISZERO PUSH3 0x64A JUMPI DUP3 DUP8 ADD MLOAD SWAP1 POP JUMPDEST PUSH3 0x656 DUP6 DUP3 PUSH3 0x5C9 JUMP JUMPDEST DUP7 SSTORE POP PUSH3 0x6C6 JUMP JUMPDEST PUSH1 0x1F NOT DUP5 AND PUSH3 0x66F DUP7 PUSH3 0x40B JUMP JUMPDEST PUSH1 0x0 JUMPDEST DUP3 DUP2 LT ISZERO PUSH3 0x699 JUMPI DUP5 DUP10 ADD MLOAD DUP3 SSTORE PUSH1 0x1 DUP3 ADD SWAP2 POP PUSH1 0x20 DUP6 ADD SWAP5 POP PUSH1 0x20 DUP2 ADD SWAP1 POP PUSH3 0x672 JUMP JUMPDEST DUP7 DUP4 LT ISZERO PUSH3 0x6B9 JUMPI DUP5 DUP10 ADD MLOAD PUSH3 0x6B5 PUSH1 0x1F DUP10 AND DUP3 PUSH3 0x5A9 JUMP JUMPDEST DUP4 SSTORE POP JUMPDEST PUSH1 0x1 PUSH1 0x2 DUP9 MUL ADD DUP9 SSTORE POP POP POP JUMPDEST POP POP POP POP POP POP JUMP JUMPDEST PUSH1 0x0 DUP3 DUP3 MSTORE PUSH1 0x20 DUP3 ADD SWAP1 POP SWAP3 SWAP2 POP POP JUMP JUMPDEST PUSH32 0x43616E6E6F7420736574206F776E657220746F207A65726F0000000000000000 PUSH1 0x0 DUP3 ADD MSTORE POP JUMP JUMPDEST PUSH1 0x0 PUSH3 0x717 PUSH1 0x18 DUP4 PUSH3 0x6CE JUMP JUMPDEST SWAP2 POP PUSH3 0x724 DUP3 PUSH3 0x6DF JUMP JUMPDEST PUSH1 0x20 DUP3 ADD SWAP1 POP SWAP2 SWAP1 POP JUMP JUMPDEST PUSH1 0x0 PUSH1 0x20 DUP3 ADD SWAP1 POP DUP2 DUP2 SUB PUSH1 0x0 DUP4 ADD MSTORE PUSH3 0x74A DUP2 PUSH3 0x708 JUMP JUMPDEST SWAP1 POP SWAP2 SWAP1 POP JUMP JUMPDEST PUSH32 0x43616E6E6F74207472616E7366657220746F2073656C66000000000000000000 PUSH1 0x0 DUP3 ADD MSTORE POP JUMP JUMPDEST PUSH1 0x0 PUSH3 0x789 PUSH1 0x17 DUP4 PUSH3 0x6CE JUMP JUMPDEST SWAP2 POP PUSH3 0x796 DUP3 PUSH3 0x751 JUMP JUMPDEST PUSH1 0x20 DUP3 ADD SWAP1 POP SWAP2 SWAP1 POP JUMP JUMPDEST PUSH1 0x0 PUSH1 0x20 DUP3 ADD SWAP1 POP DUP2 DUP2 SUB PUSH1 0x0 DUP4 ADD MSTORE PUSH3 0x7BC DUP2 PUSH3 0x77A JUMP JUMPDEST SWAP1 POP SWAP2 SWAP1 POP JUMP JUMPDEST PUSH1 0x80 MLOAD PUSH2 0x257C PUSH3 0x7E6 PUSH1 0x0 CODECOPY PUSH1 0x0 DUP2 DUP2 PUSH2 0x1A2 ADD MSTORE PUSH2 0xD0C ADD MSTORE PUSH2 0x257C PUSH1 0x0 RETURN INVALID PUSH1 0x80 PUSH1 0x40 MSTORE CALLVALUE DUP1 ISZERO PUSH2 0x10 JUMPI PUSH1 0x0 DUP1 REVERT JUMPDEST POP PUSH1 0x4 CALLDATASIZE LT PUSH2 0x93 JUMPI PUSH1 0x0 CALLDATALOAD PUSH1 0xE0 SHR DUP1 PUSH4 0x79BA5097 GT PUSH2 0x66 JUMPI DUP1 PUSH4 0x79BA5097 EQ PUSH2 0x120 JUMPI DUP1 PUSH4 0x8DA5CB5B EQ PUSH2 0x12A JUMPI DUP1 PUSH4 0xB1E21749 EQ PUSH2 0x148 JUMPI DUP1 PUSH4 0xCF40F249 EQ PUSH2 0x166 JUMPI DUP1 PUSH4 0xF2FDE38B EQ PUSH2 0x184 JUMPI PUSH2 0x93 JUMP JUMPDEST DUP1 PUSH4 0xCA76175 EQ PUSH2 0x98 JUMPI DUP1 PUSH4 0x3944EA3A EQ PUSH2 0xB4 JUMPI DUP1 PUSH4 0x3E3EDE5A EQ PUSH2 0xD2 JUMPI DUP1 PUSH4 0x4B0795A8 EQ PUSH2 0x102 JUMPI JUMPDEST PUSH1 0x0 DUP1 REVERT JUMPDEST PUSH2 0xB2 PUSH1 0x4 DUP1 CALLDATASIZE SUB DUP2 ADD SWAP1 PUSH2 0xAD SWAP2 SWAP1 PUSH2 0x1777 JUMP JUMPDEST PUSH2 0x1A0 JUMP JUMPDEST STOP JUMPDEST PUSH2 0xBC PUSH2 0x262 JUMP JUMPDEST PUSH1 0x40 MLOAD PUSH2 0xC9 SWAP2 SWAP1 PUSH2 0x1881 JUMP JUMPDEST PUSH1 0x40 MLOAD DUP1 SWAP2 SUB SWAP1 RETURN JUMPDEST PUSH2 0xEC PUSH1 0x4 DUP1 CALLDATASIZE SUB DUP2 ADD SWAP1 PUSH2 0xE7 SWAP2 SWAP1 PUSH2 0x1944 JUMP JUMPDEST PUSH2 0x2F0 JUMP JUMPDEST PUSH1 0x40 MLOAD PUSH2 0xF9 SWAP2 SWAP1 PUSH2 0x199C JUMP JUMPDEST PUSH1 0x40 MLOAD DUP1 SWAP2 SUB SWAP1 RETURN JUMPDEST PUSH2 0x10A PUSH2 0x461 JUMP JUMPDEST PUSH1 0x40 MLOAD PUSH2 0x117 SWAP2 SWAP1 PUSH2 0x1881 JUMP JUMPDEST PUSH1 0x40 MLOAD DUP1 SWAP2 SUB SWAP1 RETURN JUMPDEST PUSH2 0x128 PUSH2 0x4EF JUMP JUMPDEST STOP JUMPDEST PUSH2 0x132 PUSH2 0x684 JUMP JUMPDEST PUSH1 0x40 MLOAD PUSH2 0x13F SWAP2 SWAP1 PUSH2 0x19F8 JUMP JUMPDEST PUSH1 0x40 MLOAD DUP1 SWAP2 SUB SWAP1 RETURN JUMPDEST PUSH2 0x150 PUSH2 0x6AD JUMP JUMPDEST PUSH1 0x40 MLOAD PUSH2 0x15D SWAP2 SWAP1 PUSH2 0x199C JUMP JUMPDEST PUSH1 0x40 MLOAD DUP1 SWAP2 SUB SWAP1 RETURN JUMPDEST PUSH2 0x16E PUSH2 0x6B3 JUMP JUMPDEST PUSH1 0x40 MLOAD PUSH2 0x17B SWAP2 SWAP1 PUSH2 0x1A68 JUMP JUMPDEST PUSH1 0x40 MLOAD DUP1 SWAP2 SUB SWAP1 RETURN JUMPDEST PUSH2 0x19E PUSH1 0x4 DUP1 CALLDATASIZE SUB DUP2 ADD SWAP1 PUSH2 0x199 SWAP2 SWAP1 PUSH2 0x1AB6 JUMP JUMPDEST PUSH2 0x741 JUMP JUMPDEST STOP JUMPDEST PUSH32 0x0 PUSH20 0xFFFFFFFFFFFFFFFFFFFFFFFFFFFFFFFFFFFFFFFF AND CALLER PUSH20 0xFFFFFFFFFFFFFFFFFFFFFFFFFFFFFFFFFFFFFFFF AND EQ PUSH2 0x225 JUMPI PUSH1 0x40 MLOAD PUSH32 0xC6829F8300000000000000000000000000000000000000000000000000000000 DUP2 MSTORE PUSH1 0x4 ADD PUSH1 0x40 MLOAD DUP1 SWAP2 SUB SWAP1 REVERT JUMPDEST PUSH2 0x230 DUP4 DUP4 DUP4 PUSH2 0x755 JUMP JUMPDEST DUP3 PUSH32 0x85E1543BF2F84FE80C6BADBCE3648C8539AD1DF4D2B3D822938CA0538BE727E6 PUSH1 0x40 MLOAD PUSH1 0x40 MLOAD DUP1 SWAP2 SUB SWAP1 LOG2 POP POP POP JUMP JUMPDEST PUSH1 0x5 DUP1 SLOAD PUSH2 0x26F SWAP1 PUSH2 0x1B12 JUMP JUMPDEST DUP1 PUSH1 0x1F ADD PUSH1 0x20 DUP1 SWAP2 DIV MUL PUSH1 0x20 ADD PUSH1 0x40 MLOAD SWAP1 DUP2 ADD PUSH1 0x40 MSTORE DUP1 SWAP3 SWAP2 SWAP1 DUP2 DUP2 MSTORE PUSH1 0x20 ADD DUP3 DUP1 SLOAD PUSH2 0x29B SWAP1 PUSH2 0x1B12 JUMP JUMPDEST DUP1 ISZERO PUSH2 0x2E8 JUMPI DUP1 PUSH1 0x1F LT PUSH2 0x2BD JUMPI PUSH2 0x100 DUP1 DUP4 SLOAD DIV MUL DUP4 MSTORE SWAP2 PUSH1 0x20 ADD SWAP2 PUSH2 0x2E8 JUMP JUMPDEST DUP3 ADD SWAP2 SWAP1 PUSH1 0x0 MSTORE PUSH1 0x20 PUSH1 0x0 KECCAK256 SWAP1 JUMPDEST DUP2 SLOAD DUP2 MSTORE SWAP1 PUSH1 0x1 ADD SWAP1 PUSH1 0x20 ADD DUP1 DUP4 GT PUSH2 0x2CB JUMPI DUP3 SWAP1 SUB PUSH1 0x1F AND DUP3 ADD SWAP2 JUMPDEST POP POP POP POP POP DUP2 JUMP JUMPDEST PUSH1 0x0 PUSH2 0x2FA PUSH2 0x80E JUMP JUMPDEST PUSH2 0x302 PUSH2 0x153B JUMP JUMPDEST PUSH2 0x39F PUSH1 0x9 DUP1 SLOAD PUSH2 0x312 SWAP1 PUSH2 0x1B12 JUMP JUMPDEST DUP1 PUSH1 0x1F ADD PUSH1 0x20 DUP1 SWAP2 DIV MUL PUSH1 0x20 ADD PUSH1 0x40 MLOAD SWAP1 DUP2 ADD PUSH1 0x40 MSTORE DUP1 SWAP3 SWAP2 SWAP1 DUP2 DUP2 MSTORE PUSH1 0x20 ADD DUP3 DUP1 SLOAD PUSH2 0x33E SWAP1 PUSH2 0x1B12 JUMP JUMPDEST DUP1 ISZERO PUSH2 0x38B JUMPI DUP1 PUSH1 0x1F LT PUSH2 0x360 JUMPI PUSH2 0x100 DUP1 DUP4 SLOAD DIV MUL DUP4 MSTORE SWAP2 PUSH1 0x20 ADD SWAP2 PUSH2 0x38B JUMP JUMPDEST DUP3 ADD SWAP2 SWAP1 PUSH1 0x0 MSTORE PUSH1 0x20 PUSH1 0x0 KECCAK256 SWAP1 JUMPDEST DUP2 SLOAD DUP2 MSTORE SWAP1 PUSH1 0x1 ADD SWAP1 PUSH1 0x20 ADD DUP1 DUP4 GT PUSH2 0x36E JUMPI DUP3 SWAP1 SUB PUSH1 0x1F AND DUP3 ADD SWAP2 JUMPDEST POP POP POP POP POP DUP3 PUSH2 0x89E SWAP1 SWAP2 SWAP1 PUSH4 0xFFFFFFFF AND JUMP JUMPDEST PUSH1 0x0 PUSH1 0x1 PUSH8 0xFFFFFFFFFFFFFFFF DUP2 GT ISZERO PUSH2 0x3BC JUMPI PUSH2 0x3BB PUSH2 0x164C JUMP JUMPDEST JUMPDEST PUSH1 0x40 MLOAD SWAP1 DUP1 DUP3 MSTORE DUP1 PUSH1 0x20 MUL PUSH1 0x20 ADD DUP3 ADD PUSH1 0x40 MSTORE DUP1 ISZERO PUSH2 0x3EF JUMPI DUP2 PUSH1 0x20 ADD JUMPDEST PUSH1 0x60 DUP2 MSTORE PUSH1 0x20 ADD SWAP1 PUSH1 0x1 SWAP1 SUB SWAP1 DUP2 PUSH2 0x3DA JUMPI SWAP1 POP JUMPDEST POP SWAP1 POP DUP4 DUP2 PUSH1 0x0 DUP2 MLOAD DUP2 LT PUSH2 0x407 JUMPI PUSH2 0x406 PUSH2 0x1B43 JUMP JUMPDEST JUMPDEST PUSH1 0x20 MUL PUSH1 0x20 ADD ADD DUP2 SWAP1 MSTORE POP PUSH2 0x425 DUP2 DUP4 PUSH2 0x8AF SWAP1 SWAP2 SWAP1 PUSH4 0xFFFFFFFF AND JUMP JUMPDEST PUSH2 0x44F PUSH2 0x431 DUP4 PUSH2 0x8F7 JUMP JUMPDEST PUSH2 0x2057 PUSH1 0x8 PUSH1 0x0 SWAP1 SLOAD SWAP1 PUSH2 0x100 EXP SWAP1 DIV PUSH4 0xFFFFFFFF AND PUSH1 0x3 SLOAD PUSH2 0xD07 JUMP JUMPDEST PUSH1 0x4 DUP2 SWAP1 SSTORE POP PUSH1 0x4 SLOAD SWAP3 POP POP POP SWAP2 SWAP1 POP JUMP JUMPDEST PUSH1 0x6 DUP1 SLOAD PUSH2 0x46E SWAP1 PUSH2 0x1B12 JUMP JUMPDEST DUP1 PUSH1 0x1F ADD PUSH1 0x20 DUP1 SWAP2 DIV MUL PUSH1 0x20 ADD PUSH1 0x40 MLOAD SWAP1 DUP2 ADD PUSH1 0x40 MSTORE DUP1 SWAP3 SWAP2 SWAP1 DUP2 DUP2 MSTORE PUSH1 0x20 ADD DUP3 DUP1 SLOAD PUSH2 0x49A SWAP1 PUSH2 0x1B12 JUMP JUMPDEST DUP1 ISZERO PUSH2 0x4E7 JUMPI DUP1 PUSH1 0x1F LT PUSH2 0x4BC JUMPI PUSH2 0x100 DUP1 DUP4 SLOAD DIV MUL DUP4 MSTORE SWAP2 PUSH1 0x20 ADD SWAP2 PUSH2 0x4E7 JUMP JUMPDEST DUP3 ADD SWAP2 SWAP1 PUSH1 0x0 MSTORE PUSH1 0x20 PUSH1 0x0 KECCAK256 SWAP1 JUMPDEST DUP2 SLOAD DUP2 MSTORE SWAP1 PUSH1 0x1 ADD SWAP1 PUSH1 0x20 ADD DUP1 DUP4 GT PUSH2 0x4CA JUMPI DUP3 SWAP1 SUB PUSH1 0x1F AND DUP3 ADD SWAP2 JUMPDEST POP POP POP POP POP DUP2 JUMP JUMPDEST PUSH1 0x1 PUSH1 0x0 SWAP1 SLOAD SWAP1 PUSH2 0x100 EXP SWAP1 DIV PUSH20 0xFFFFFFFFFFFFFFFFFFFFFFFFFFFFFFFFFFFFFFFF AND PUSH20 0xFFFFFFFFFFFFFFFFFFFFFFFFFFFFFFFFFFFFFFFF AND CALLER PUSH20 0xFFFFFFFFFFFFFFFFFFFFFFFFFFFFFFFFFFFFFFFF AND EQ PUSH2 0x57F JUMPI PUSH1 0x40 MLOAD PUSH32 0x8C379A000000000000000000000000000000000000000000000000000000000 DUP2 MSTORE PUSH1 0x4 ADD PUSH2 0x576 SWAP1 PUSH2 0x1BBE JUMP JUMPDEST PUSH1 0x40 MLOAD DUP1 SWAP2 SUB SWAP1 REVERT JUMPDEST PUSH1 0x0 DUP1 PUSH1 0x0 SWAP1 SLOAD SWAP1 PUSH2 0x100 EXP SWAP1 DIV PUSH20 0xFFFFFFFFFFFFFFFFFFFFFFFFFFFFFFFFFFFFFFFF AND SWAP1 POP CALLER PUSH1 0x0 DUP1 PUSH2 0x100 EXP DUP2 SLOAD DUP2 PUSH20 0xFFFFFFFFFFFFFFFFFFFFFFFFFFFFFFFFFFFFFFFF MUL NOT AND SWAP1 DUP4 PUSH20 0xFFFFFFFFFFFFFFFFFFFFFFFFFFFFFFFFFFFFFFFF AND MUL OR SWAP1 SSTORE POP PUSH1 0x0 PUSH1 0x1 PUSH1 0x0 PUSH2 0x100 EXP DUP2 SLOAD DUP2 PUSH20 0xFFFFFFFFFFFFFFFFFFFFFFFFFFFFFFFFFFFFFFFF MUL NOT AND SWAP1 DUP4 PUSH20 0xFFFFFFFFFFFFFFFFFFFFFFFFFFFFFFFFFFFFFFFF AND MUL OR SWAP1 SSTORE POP CALLER PUSH20 0xFFFFFFFFFFFFFFFFFFFFFFFFFFFFFFFFFFFFFFFF AND DUP2 PUSH20 0xFFFFFFFFFFFFFFFFFFFFFFFFFFFFFFFFFFFFFFFF AND PUSH32 0x8BE0079C531659141344CD1FD0A4F28419497F9722A3DAAFE3B4186F6B6457E0 PUSH1 0x40 MLOAD PUSH1 0x40 MLOAD DUP1 SWAP2 SUB SWAP1 LOG3 POP JUMP JUMPDEST PUSH1 0x0 DUP1 PUSH1 0x0 SWAP1 SLOAD SWAP1 PUSH2 0x100 EXP SWAP1 DIV PUSH20 0xFFFFFFFFFFFFFFFFFFFFFFFFFFFFFFFFFFFFFFFF AND SWAP1 POP SWAP1 JUMP JUMPDEST PUSH1 0x4 SLOAD DUP2 JUMP JUMPDEST PUSH1 0x7 DUP1 SLOAD PUSH2 0x6C0 SWAP1 PUSH2 0x1B12 JUMP JUMPDEST DUP1 PUSH1 0x1F ADD PUSH1 0x20 DUP1 SWAP2 DIV MUL PUSH1 0x20 ADD PUSH1 0x40 MLOAD SWAP1 DUP2 ADD PUSH1 0x40 MSTORE DUP1 SWAP3 SWAP2 SWAP1 DUP2 DUP2 MSTORE PUSH1 0x20 ADD DUP3 DUP1 SLOAD PUSH2 0x6EC SWAP1 PUSH2 0x1B12 JUMP JUMPDEST DUP1 ISZERO PUSH2 0x739 JUMPI DUP1 PUSH1 0x1F LT PUSH2 0x70E JUMPI PUSH2 0x100 DUP1 DUP4 SLOAD DIV MUL DUP4 MSTORE SWAP2 PUSH1 0x20 ADD SWAP2 PUSH2 0x739 JUMP JUMPDEST DUP3 ADD SWAP2 SWAP1 PUSH1 0x0 MSTORE PUSH1 0x20 PUSH1 0x0 KECCAK256 SWAP1 JUMPDEST DUP2 SLOAD DUP2 MSTORE SWAP1 PUSH1 0x1 ADD SWAP1 PUSH1 0x20 ADD DUP1 DUP4 GT PUSH2 0x71C JUMPI DUP3 SWAP1 SUB PUSH1 0x1F AND DUP3 ADD SWAP2 JUMPDEST POP POP POP POP POP DUP2 JUMP JUMPDEST PUSH2 0x749 PUSH2 0x80E JUMP JUMPDEST PUSH2 0x752 DUP2 PUSH2 0xDEA JUMP JUMPDEST POP JUMP JUMPDEST DUP3 PUSH1 0x4 SLOAD EQ PUSH2 0x79B JUMPI DUP3 PUSH1 0x40 MLOAD PUSH32 0xD068BF5B00000000000000000000000000000000000000000000000000000000 DUP2 MSTORE PUSH1 0x4 ADD PUSH2 0x792 SWAP2 SWAP1 PUSH2 0x199C JUMP JUMPDEST PUSH1 0x40 MLOAD DUP1 SWAP2 SUB SWAP1 REVERT JUMPDEST DUP2 PUSH1 0x5 SWAP1 DUP2 PUSH2 0x7AA SWAP2 SWAP1 PUSH2 0x1D94 JUMP JUMPDEST POP DUP1 PUSH1 0x6 SWAP1 DUP2 PUSH2 0x7BA SWAP2 SWAP1 PUSH2 0x1D94 JUMP JUMPDEST POP DUP2 PUSH1 0x7 SWAP1 DUP2 PUSH2 0x7CA SWAP2 SWAP1 PUSH2 0x1EC1 JUMP JUMPDEST POP DUP3 PUSH32 0x36E18F278C0BC4E053CEFF5B445200072B19F094EABC06099380B90D3A1DE297 DUP4 PUSH1 0x5 PUSH1 0x6 PUSH1 0x40 MLOAD PUSH2 0x801 SWAP4 SWAP3 SWAP2 SWAP1 PUSH2 0x2017 JUMP JUMPDEST PUSH1 0x40 MLOAD DUP1 SWAP2 SUB SWAP1 LOG2 POP POP POP JUMP JUMPDEST PUSH1 0x0 DUP1 SLOAD SWAP1 PUSH2 0x100 EXP SWAP1 DIV PUSH20 0xFFFFFFFFFFFFFFFFFFFFFFFFFFFFFFFFFFFFFFFF AND PUSH20 0xFFFFFFFFFFFFFFFFFFFFFFFFFFFFFFFFFFFFFFFF AND CALLER PUSH20 0xFFFFFFFFFFFFFFFFFFFFFFFFFFFFFFFFFFFFFFFF AND EQ PUSH2 0x89C JUMPI PUSH1 0x40 MLOAD PUSH32 0x8C379A000000000000000000000000000000000000000000000000000000000 DUP2 MSTORE PUSH1 0x4 ADD PUSH2 0x893 SWAP1 PUSH2 0x20AF JUMP JUMPDEST PUSH1 0x40 MLOAD DUP1 SWAP2 SUB SWAP1 REVERT JUMPDEST JUMP JUMPDEST PUSH2 0x8AB DUP3 PUSH1 0x0 DUP1 DUP5 PUSH2 0xF16 JUMP JUMPDEST POP POP JUMP JUMPDEST PUSH1 0x0 DUP2 MLOAD SUB PUSH2 0x8EA JUMPI PUSH1 0x40 MLOAD PUSH32 0xFE936CB700000000000000000000000000000000000000000000000000000000 DUP2 MSTORE PUSH1 0x4 ADD PUSH1 0x40 MLOAD DUP1 SWAP2 SUB SWAP1 REVERT JUMPDEST DUP1 DUP3 PUSH1 0xA0 ADD DUP2 SWAP1 MSTORE POP POP POP JUMP JUMPDEST PUSH1 0x60 PUSH1 0x0 PUSH2 0x906 PUSH2 0x100 PUSH2 0xFC0 JUMP JUMPDEST SWAP1 POP PUSH2 0x950 PUSH1 0x40 MLOAD DUP1 PUSH1 0x40 ADD PUSH1 0x40 MSTORE DUP1 PUSH1 0xC DUP2 MSTORE PUSH1 0x20 ADD PUSH32 0x636F64654C6F636174696F6E0000000000000000000000000000000000000000 DUP2 MSTORE POP DUP3 PUSH2 0xFE7 SWAP1 SWAP2 SWAP1 PUSH4 0xFFFFFFFF AND JUMP JUMPDEST PUSH2 0x979 DUP4 PUSH1 0x0 ADD MLOAD PUSH1 0x2 DUP2 GT ISZERO PUSH2 0x96A JUMPI PUSH2 0x969 PUSH2 0x20CF JUMP JUMPDEST JUMPDEST DUP3 PUSH2 0x1010 SWAP1 SWAP2 SWAP1 PUSH4 0xFFFFFFFF AND JUMP JUMPDEST PUSH2 0x9C1 PUSH1 0x40 MLOAD DUP1 PUSH1 0x40 ADD PUSH1 0x40 MSTORE DUP1 PUSH1 0x8 DUP2 MSTORE PUSH1 0x20 ADD PUSH32 0x6C616E6775616765000000000000000000000000000000000000000000000000 DUP2 MSTORE POP DUP3 PUSH2 0xFE7 SWAP1 SWAP2 SWAP1 PUSH4 0xFFFFFFFF AND JUMP JUMPDEST PUSH2 0x9EA DUP4 PUSH1 0x40 ADD MLOAD PUSH1 0x0 DUP2 GT ISZERO PUSH2 0x9DB JUMPI PUSH2 0x9DA PUSH2 0x20CF JUMP JUMPDEST JUMPDEST DUP3 PUSH2 0x1010 SWAP1 SWAP2 SWAP1 PUSH4 0xFFFFFFFF AND JUMP JUMPDEST PUSH2 0xA32 PUSH1 0x40 MLOAD DUP1 PUSH1 0x40 ADD PUSH1 0x40 MSTORE DUP1 PUSH1 0x6 DUP2 MSTORE PUSH1 0x20 ADD PUSH32 0x736F757263650000000000000000000000000000000000000000000000000000 DUP2 MSTORE POP DUP3 PUSH2 0xFE7 SWAP1 SWAP2 SWAP1 PUSH4 0xFFFFFFFF AND JUMP JUMPDEST PUSH2 0xA49 DUP4 PUSH1 0x60 ADD MLOAD DUP3 PUSH2 0xFE7 SWAP1 SWAP2 SWAP1 PUSH4 0xFFFFFFFF AND JUMP JUMPDEST PUSH1 0x0 DUP4 PUSH1 0xA0 ADD MLOAD MLOAD GT ISZERO PUSH2 0xAFF JUMPI PUSH2 0xA9F PUSH1 0x40 MLOAD DUP1 PUSH1 0x40 ADD PUSH1 0x40 MSTORE DUP1 PUSH1 0x4 DUP2 MSTORE PUSH1 0x20 ADD PUSH32 0x6172677300000000000000000000000000000000000000000000000000000000 DUP2 MSTORE POP DUP3 PUSH2 0xFE7 SWAP1 SWAP2 SWAP1 PUSH4 0xFFFFFFFF AND JUMP JUMPDEST PUSH2 0xAA8 DUP2 PUSH2 0x1060 JUMP JUMPDEST PUSH1 0x0 JUMPDEST DUP4 PUSH1 0xA0 ADD MLOAD MLOAD DUP2 LT ISZERO PUSH2 0xAF4 JUMPI PUSH2 0xAE9 DUP5 PUSH1 0xA0 ADD MLOAD DUP3 DUP2 MLOAD DUP2 LT PUSH2 0xAD2 JUMPI PUSH2 0xAD1 PUSH2 0x1B43 JUMP JUMPDEST JUMPDEST PUSH1 0x20 MUL PUSH1 0x20 ADD ADD MLOAD DUP4 PUSH2 0xFE7 SWAP1 SWAP2 SWAP1 PUSH4 0xFFFFFFFF AND JUMP JUMPDEST DUP1 PUSH1 0x1 ADD SWAP1 POP PUSH2 0xAAB JUMP JUMPDEST POP PUSH2 0xAFE DUP2 PUSH2 0x1088 JUMP JUMPDEST JUMPDEST PUSH1 0x0 DUP4 PUSH1 0x80 ADD MLOAD MLOAD GT ISZERO PUSH2 0xC40 JUMPI PUSH1 0x0 PUSH1 0x2 DUP2 GT ISZERO PUSH2 0xB21 JUMPI PUSH2 0xB20 PUSH2 0x20CF JUMP JUMPDEST JUMPDEST DUP4 PUSH1 0x20 ADD MLOAD PUSH1 0x2 DUP2 GT ISZERO PUSH2 0xB38 JUMPI PUSH2 0xB37 PUSH2 0x20CF JUMP JUMPDEST JUMPDEST SUB PUSH2 0xB6F JUMPI PUSH1 0x40 MLOAD PUSH32 0xA80D31F700000000000000000000000000000000000000000000000000000000 DUP2 MSTORE PUSH1 0x4 ADD PUSH1 0x40 MLOAD DUP1 SWAP2 SUB SWAP1 REVERT JUMPDEST PUSH2 0xBB7 PUSH1 0x40 MLOAD DUP1 PUSH1 0x40 ADD PUSH1 0x40 MSTORE DUP1 PUSH1 0xF DUP2 MSTORE PUSH1 0x20 ADD PUSH32 0x736563726574734C6F636174696F6E0000000000000000000000000000000000 DUP2 MSTORE POP DUP3 PUSH2 0xFE7 SWAP1 SWAP2 SWAP1 PUSH4 0xFFFFFFFF AND JUMP JUMPDEST PUSH2 0xBE0 DUP4 PUSH1 0x20 ADD MLOAD PUSH1 0x2 DUP2 GT ISZERO PUSH2 0xBD1 JUMPI PUSH2 0xBD0 PUSH2 0x20CF JUMP JUMPDEST JUMPDEST DUP3 PUSH2 0x1010 SWAP1 SWAP2 SWAP1 PUSH4 0xFFFFFFFF AND JUMP JUMPDEST PUSH2 0xC28 PUSH1 0x40 MLOAD DUP1 PUSH1 0x40 ADD PUSH1 0x40 MSTORE DUP1 PUSH1 0x7 DUP2 MSTORE PUSH1 0x20 ADD PUSH32 0x7365637265747300000000000000000000000000000000000000000000000000 DUP2 MSTORE POP DUP3 PUSH2 0xFE7 SWAP1 SWAP2 SWAP1 PUSH4 0xFFFFFFFF AND JUMP JUMPDEST PUSH2 0xC3F DUP4 PUSH1 0x80 ADD MLOAD DUP3 PUSH2 0x10B0 SWAP1 SWAP2 SWAP1 PUSH4 0xFFFFFFFF AND JUMP JUMPDEST JUMPDEST PUSH1 0x0 DUP4 PUSH1 0xC0 ADD MLOAD MLOAD GT ISZERO PUSH2 0xCF6 JUMPI PUSH2 0xC96 PUSH1 0x40 MLOAD DUP1 PUSH1 0x40 ADD PUSH1 0x40 MSTORE DUP1 PUSH1 0x9 DUP2 MSTORE PUSH1 0x20 ADD PUSH32 0x6279746573417267730000000000000000000000000000000000000000000000 DUP2 MSTORE POP DUP3 PUSH2 0xFE7 SWAP1 SWAP2 SWAP1 PUSH4 0xFFFFFFFF AND JUMP JUMPDEST PUSH2 0xC9F DUP2 PUSH2 0x1060 JUMP JUMPDEST PUSH1 0x0 JUMPDEST DUP4 PUSH1 0xC0 ADD MLOAD MLOAD DUP2 LT ISZERO PUSH2 0xCEB JUMPI PUSH2 0xCE0 DUP5 PUSH1 0xC0 ADD MLOAD DUP3 DUP2 MLOAD DUP2 LT PUSH2 0xCC9 JUMPI PUSH2 0xCC8 PUSH2 0x1B43 JUMP JUMPDEST JUMPDEST PUSH1 0x20 MUL PUSH1 0x20 ADD ADD MLOAD DUP4 PUSH2 0x10B0 SWAP1 SWAP2 SWAP1 PUSH4 0xFFFFFFFF AND JUMP JUMPDEST DUP1 PUSH1 0x1 ADD SWAP1 POP PUSH2 0xCA2 JUMP JUMPDEST POP PUSH2 0xCF5 DUP2 PUSH2 0x1088 JUMP JUMPDEST JUMPDEST DUP1 PUSH1 0x0 ADD MLOAD PUSH1 0x0 ADD MLOAD SWAP2 POP POP SWAP2 SWAP1 POP JUMP JUMPDEST PUSH1 0x0 DUP1 PUSH32 0x0 PUSH20 0xFFFFFFFFFFFFFFFFFFFFFFFFFFFFFFFFFFFFFFFF AND PUSH4 0x461D2762 DUP7 DUP9 PUSH1 0x1 DUP9 DUP9 PUSH1 0x40 MLOAD DUP7 PUSH4 0xFFFFFFFF AND PUSH1 0xE0 SHL DUP2 MSTORE PUSH1 0x4 ADD PUSH2 0xD6C SWAP6 SWAP5 SWAP4 SWAP3 SWAP2 SWAP1 PUSH2 0x215D JUMP JUMPDEST PUSH1 0x20 PUSH1 0x40 MLOAD DUP1 DUP4 SUB DUP2 PUSH1 0x0 DUP8 GAS CALL ISZERO DUP1 ISZERO PUSH2 0xD8B JUMPI RETURNDATASIZE PUSH1 0x0 DUP1 RETURNDATACOPY RETURNDATASIZE PUSH1 0x0 REVERT JUMPDEST POP POP POP POP PUSH1 0x40 MLOAD RETURNDATASIZE PUSH1 0x1F NOT PUSH1 0x1F DUP3 ADD AND DUP3 ADD DUP1 PUSH1 0x40 MSTORE POP DUP2 ADD SWAP1 PUSH2 0xDAF SWAP2 SWAP1 PUSH2 0x21CC JUMP JUMPDEST SWAP1 POP DUP1 PUSH32 0x1131472297A800FEE664D1D89CFA8F7676FF07189ECC53F80BBB5F4969099DB8 PUSH1 0x40 MLOAD PUSH1 0x40 MLOAD DUP1 SWAP2 SUB SWAP1 LOG2 DUP1 SWAP2 POP POP SWAP5 SWAP4 POP POP POP POP JUMP JUMPDEST CALLER PUSH20 0xFFFFFFFFFFFFFFFFFFFFFFFFFFFFFFFFFFFFFFFF AND DUP2 PUSH20 0xFFFFFFFFFFFFFFFFFFFFFFFFFFFFFFFFFFFFFFFF AND SUB PUSH2 0xE58 JUMPI PUSH1 0x40 MLOAD PUSH32 0x8C379A000000000000000000000000000000000000000000000000000000000 DUP2 MSTORE PUSH1 0x4 ADD PUSH2 0xE4F SWAP1 PUSH2 0x2245 JUMP JUMPDEST PUSH1 0x40 MLOAD DUP1 SWAP2 SUB SWAP1 REVERT JUMPDEST DUP1 PUSH1 0x1 PUSH1 0x0 PUSH2 0x100 EXP DUP2 SLOAD DUP2 PUSH20 0xFFFFFFFFFFFFFFFFFFFFFFFFFFFFFFFFFFFFFFFF MUL NOT AND SWAP1 DUP4 PUSH20 0xFFFFFFFFFFFFFFFFFFFFFFFFFFFFFFFFFFFFFFFF AND MUL OR SWAP1 SSTORE POP DUP1 PUSH20 0xFFFFFFFFFFFFFFFFFFFFFFFFFFFFFFFFFFFFFFFF AND PUSH1 0x0 DUP1 SLOAD SWAP1 PUSH2 0x100 EXP SWAP1 DIV PUSH20 0xFFFFFFFFFFFFFFFFFFFFFFFFFFFFFFFFFFFFFFFF AND PUSH20 0xFFFFFFFFFFFFFFFFFFFFFFFFFFFFFFFFFFFFFFFF AND PUSH32 0xED8889F560326EB138920D842192F0EB3DD22B4F139C87A2C57538E05BAE1278 PUSH1 0x40 MLOAD PUSH1 0x40 MLOAD DUP1 SWAP2 SUB SWAP1 LOG3 POP JUMP JUMPDEST PUSH1 0x0 DUP2 MLOAD SUB PUSH2 0xF51 JUMPI PUSH1 0x40 MLOAD PUSH32 0x22CE3EDD00000000000000000000000000000000000000000000000000000000 DUP2 MSTORE PUSH1 0x4 ADD PUSH1 0x40 MLOAD DUP1 SWAP2 SUB SWAP1 REVERT JUMPDEST DUP3 DUP5 PUSH1 0x0 ADD SWAP1 PUSH1 0x2 DUP2 GT ISZERO PUSH2 0xF69 JUMPI PUSH2 0xF68 PUSH2 0x20CF JUMP JUMPDEST JUMPDEST SWAP1 DUP2 PUSH1 0x2 DUP2 GT ISZERO PUSH2 0xF7D JUMPI PUSH2 0xF7C PUSH2 0x20CF JUMP JUMPDEST JUMPDEST DUP2 MSTORE POP POP DUP2 DUP5 PUSH1 0x40 ADD SWAP1 PUSH1 0x0 DUP2 GT ISZERO PUSH2 0xF99 JUMPI PUSH2 0xF98 PUSH2 0x20CF JUMP JUMPDEST JUMPDEST SWAP1 DUP2 PUSH1 0x0 DUP2 GT ISZERO PUSH2 0xFAD JUMPI PUSH2 0xFAC PUSH2 0x20CF JUMP JUMPDEST JUMPDEST DUP2 MSTORE POP POP DUP1 DUP5 PUSH1 0x60 ADD DUP2 SWAP1 MSTORE POP POP POP POP POP JUMP JUMPDEST PUSH2 0xFC8 PUSH2 0x15AD JUMP JUMPDEST PUSH2 0xFD6 DUP2 PUSH1 0x0 ADD MLOAD DUP4 PUSH2 0x10D9 JUMP JUMPDEST POP PUSH1 0x0 DUP2 PUSH1 0x20 ADD DUP2 DUP2 MSTORE POP POP SWAP2 SWAP1 POP JUMP JUMPDEST PUSH2 0xFF4 DUP3 PUSH1 0x3 DUP4 MLOAD PUSH2 0x1152 JUMP JUMPDEST PUSH2 0x100B DUP2 DUP4 PUSH1 0x0 ADD MLOAD PUSH2 0x12FB SWAP1 SWAP2 SWAP1 PUSH4 0xFFFFFFFF AND JUMP JUMPDEST POP POP POP JUMP JUMPDEST PUSH2 0x1032 PUSH1 0x2 PUSH1 0x5 PUSH1 0x6 PUSH1 0xFF AND SWAP1 SHL OR DUP4 PUSH1 0x0 ADD MLOAD PUSH2 0x1317 SWAP1 SWAP2 SWAP1 PUSH4 0xFFFFFFFF AND JUMP JUMPDEST POP PUSH2 0x105C DUP3 DUP3 PUSH1 0x40 MLOAD PUSH1 0x20 ADD PUSH2 0x1048 SWAP2 SWAP1 PUSH2 0x2274 JUMP JUMPDEST PUSH1 0x40 MLOAD PUSH1 0x20 DUP2 DUP4 SUB SUB DUP2 MSTORE SWAP1 PUSH1 0x40 MSTORE PUSH2 0x10B0 JUMP JUMPDEST POP POP JUMP JUMPDEST PUSH2 0x106B DUP2 PUSH1 0x4 PUSH2 0x1381 JUMP JUMPDEST PUSH1 0x1 DUP2 PUSH1 0x20 ADD DUP2 DUP2 MLOAD PUSH2 0x107E SWAP2 SWAP1 PUSH2 0x22BE JUMP JUMPDEST SWAP2 POP DUP2 DUP2 MSTORE POP POP POP JUMP JUMPDEST PUSH2 0x1093 DUP2 PUSH1 0x7 PUSH2 0x1381 JUMP JUMPDEST PUSH1 0x1 DUP2 PUSH1 0x20 ADD DUP2 DUP2 MLOAD PUSH2 0x10A6 SWAP2 SWAP1 PUSH2 0x22F2 JUMP JUMPDEST SWAP2 POP DUP2 DUP2 MSTORE POP POP POP JUMP JUMPDEST PUSH2 0x10BD DUP3 PUSH1 0x2 DUP4 MLOAD PUSH2 0x1152 JUMP JUMPDEST PUSH2 0x10D4 DUP2 DUP4 PUSH1 0x0 ADD MLOAD PUSH2 0x12FB SWAP1 SWAP2 SWAP1 PUSH4 0xFFFFFFFF AND JUMP JUMPDEST POP POP POP JUMP JUMPDEST PUSH2 0x10E1 PUSH2 0x15CD JUMP JUMPDEST PUSH1 0x0 PUSH1 0x20 DUP4 PUSH2 0x10F0 SWAP2 SWAP1 PUSH2 0x2355 JUMP JUMPDEST EQ PUSH2 0x111C JUMPI PUSH1 0x20 DUP3 PUSH2 0x1102 SWAP2 SWAP1 PUSH2 0x2355 JUMP JUMPDEST PUSH1 0x20 PUSH2 0x110E SWAP2 SWAP1 PUSH2 0x22F2 JUMP JUMPDEST DUP3 PUSH2 0x1119 SWAP2 SWAP1 PUSH2 0x22BE JUMP JUMPDEST SWAP2 POP JUMPDEST DUP2 DUP4 PUSH1 0x20 ADD DUP2 DUP2 MSTORE POP POP PUSH1 0x40 MLOAD DUP1 DUP5 MSTORE PUSH1 0x0 DUP2 MSTORE DUP3 DUP2 ADD PUSH1 0x20 ADD DUP2 DUP2 LT ISZERO PUSH2 0x1143 JUMPI PUSH1 0x0 DUP1 REVERT JUMPDEST DUP1 PUSH1 0x40 MSTORE POP POP DUP3 SWAP1 POP SWAP3 SWAP2 POP POP JUMP JUMPDEST PUSH1 0x17 DUP2 PUSH8 0xFFFFFFFFFFFFFFFF AND GT PUSH2 0x118D JUMPI PUSH2 0x1187 DUP2 PUSH1 0x5 DUP5 PUSH1 0xFF AND SWAP1 SHL PUSH1 0xFF AND OR DUP5 PUSH1 0x0 ADD MLOAD PUSH2 0x1317 SWAP1 SWAP2 SWAP1 PUSH4 0xFFFFFFFF AND JUMP JUMPDEST POP PUSH2 0x12F6 JUMP JUMPDEST PUSH1 0xFF DUP2 PUSH8 0xFFFFFFFFFFFFFFFF AND GT PUSH2 0x11EB JUMPI PUSH2 0x11C0 PUSH1 0x18 PUSH1 0x5 DUP5 PUSH1 0xFF AND SWAP1 SHL OR DUP5 PUSH1 0x0 ADD MLOAD PUSH2 0x1317 SWAP1 SWAP2 SWAP1 PUSH4 0xFFFFFFFF AND JUMP JUMPDEST POP PUSH2 0x11E5 DUP2 PUSH8 0xFFFFFFFFFFFFFFFF AND PUSH1 0x1 DUP6 PUSH1 0x0 ADD MLOAD PUSH2 0x13A7 SWAP1 SWAP3 SWAP2 SWAP1 PUSH4 0xFFFFFFFF AND JUMP JUMPDEST POP PUSH2 0x12F5 JUMP JUMPDEST PUSH2 0xFFFF DUP2 PUSH8 0xFFFFFFFFFFFFFFFF AND GT PUSH2 0x124A JUMPI PUSH2 0x121F PUSH1 0x19 PUSH1 0x5 DUP5 PUSH1 0xFF AND SWAP1 SHL OR DUP5 PUSH1 0x0 ADD MLOAD PUSH2 0x1317 SWAP1 SWAP2 SWAP1 PUSH4 0xFFFFFFFF AND JUMP JUMPDEST POP PUSH2 0x1244 DUP2 PUSH8 0xFFFFFFFFFFFFFFFF AND PUSH1 0x2 DUP6 PUSH1 0x0 ADD MLOAD PUSH2 0x13A7 SWAP1 SWAP3 SWAP2 SWAP1 PUSH4 0xFFFFFFFF AND JUMP JUMPDEST POP PUSH2 0x12F4 JUMP JUMPDEST PUSH4 0xFFFFFFFF DUP2 PUSH8 0xFFFFFFFFFFFFFFFF AND GT PUSH2 0x12AB JUMPI PUSH2 0x1280 PUSH1 0x1A PUSH1 0x5 DUP5 PUSH1 0xFF AND SWAP1 SHL OR DUP5 PUSH1 0x0 ADD MLOAD PUSH2 0x1317 SWAP1 SWAP2 SWAP1 PUSH4 0xFFFFFFFF AND JUMP JUMPDEST POP PUSH2 0x12A5 DUP2 PUSH8 0xFFFFFFFFFFFFFFFF AND PUSH1 0x4 DUP6 PUSH1 0x0 ADD MLOAD PUSH2 0x13A7 SWAP1 SWAP3 SWAP2 SWAP1 PUSH4 0xFFFFFFFF AND JUMP JUMPDEST POP PUSH2 0x12F3 JUMP JUMPDEST PUSH2 0x12CC PUSH1 0x1B PUSH1 0x5 DUP5 PUSH1 0xFF AND SWAP1 SHL OR DUP5 PUSH1 0x0 ADD MLOAD PUSH2 0x1317 SWAP1 SWAP2 SWAP1 PUSH4 0xFFFFFFFF AND JUMP JUMPDEST POP PUSH2 0x12F1 DUP2 PUSH8 0xFFFFFFFFFFFFFFFF AND PUSH1 0x8 DUP6 PUSH1 0x0 ADD MLOAD PUSH2 0x13A7 SWAP1 SWAP3 SWAP2 SWAP1 PUSH4 0xFFFFFFFF AND JUMP JUMPDEST POP JUMPDEST JUMPDEST JUMPDEST JUMPDEST POP POP POP JUMP JUMPDEST PUSH2 0x1303 PUSH2 0x15CD JUMP JUMPDEST PUSH2 0x130F DUP4 DUP4 DUP5 MLOAD PUSH2 0x1434 JUMP JUMPDEST SWAP1 POP SWAP3 SWAP2 POP POP JUMP JUMPDEST PUSH2 0x131F PUSH2 0x15CD JUMP JUMPDEST PUSH1 0x0 DUP4 PUSH1 0x0 ADD MLOAD MLOAD SWAP1 POP PUSH1 0x0 PUSH1 0x1 DUP3 PUSH2 0x1338 SWAP2 SWAP1 PUSH2 0x22BE JUMP JUMPDEST SWAP1 POP DUP5 PUSH1 0x20 ADD MLOAD DUP3 LT PUSH2 0x135C JUMPI PUSH2 0x135B DUP6 PUSH1 0x2 DUP4 PUSH2 0x1356 SWAP2 SWAP1 PUSH2 0x2386 JUMP JUMPDEST PUSH2 0x1517 JUMP JUMPDEST JUMPDEST DUP5 MLOAD PUSH1 0x20 DUP4 DUP3 ADD ADD DUP6 DUP2 MSTORE8 DUP2 MLOAD DUP4 GT ISZERO PUSH2 0x1374 JUMPI DUP3 DUP3 MSTORE JUMPDEST POP POP DUP5 SWAP3 POP POP POP SWAP3 SWAP2 POP POP JUMP JUMPDEST PUSH2 0x13A2 PUSH1 0x1F PUSH1 0x5 DUP4 PUSH1 0xFF AND SWAP1 SHL OR DUP4 PUSH1 0x0 ADD MLOAD PUSH2 0x1317 SWAP1 SWAP2 SWAP1 PUSH4 0xFFFFFFFF AND JUMP JUMPDEST POP POP POP JUMP JUMPDEST PUSH2 0x13AF PUSH2 0x15CD JUMP JUMPDEST PUSH1 0x0 DUP5 PUSH1 0x0 ADD MLOAD MLOAD SWAP1 POP PUSH1 0x0 DUP2 DUP5 PUSH2 0x13C7 SWAP2 SWAP1 PUSH2 0x22BE JUMP JUMPDEST SWAP1 POP DUP6 PUSH1 0x20 ADD MLOAD DUP2 GT ISZERO PUSH2 0x13EC JUMPI PUSH2 0x13EB DUP7 PUSH1 0x2 DUP4 PUSH2 0x13E6 SWAP2 SWAP1 PUSH2 0x2386 JUMP JUMPDEST PUSH2 0x1517 JUMP JUMPDEST JUMPDEST PUSH1 0x0 PUSH1 0x1 DUP6 PUSH2 0x100 PUSH2 0x13FE SWAP2 SWAP1 PUSH2 0x24FB JUMP JUMPDEST PUSH2 0x1408 SWAP2 SWAP1 PUSH2 0x22F2 JUMP JUMPDEST SWAP1 POP DUP7 MLOAD DUP3 DUP2 ADD DUP8 DUP4 NOT DUP3 MLOAD AND OR DUP2 MSTORE DUP2 MLOAD DUP5 GT ISZERO PUSH2 0x1425 JUMPI DUP4 DUP3 MSTORE JUMPDEST POP POP DUP7 SWAP4 POP POP POP POP SWAP4 SWAP3 POP POP POP JUMP JUMPDEST PUSH2 0x143C PUSH2 0x15CD JUMP JUMPDEST DUP3 MLOAD DUP3 GT ISZERO PUSH2 0x144A JUMPI PUSH1 0x0 DUP1 REVERT JUMPDEST PUSH1 0x0 DUP5 PUSH1 0x0 ADD MLOAD MLOAD SWAP1 POP PUSH1 0x0 DUP4 DUP3 PUSH2 0x1462 SWAP2 SWAP1 PUSH2 0x22BE JUMP JUMPDEST SWAP1 POP DUP6 PUSH1 0x20 ADD MLOAD DUP2 GT ISZERO PUSH2 0x1487 JUMPI PUSH2 0x1486 DUP7 PUSH1 0x2 DUP4 PUSH2 0x1481 SWAP2 SWAP1 PUSH2 0x2386 JUMP JUMPDEST PUSH2 0x1517 JUMP JUMPDEST JUMPDEST PUSH1 0x0 DUP1 DUP8 MLOAD DUP1 MLOAD DUP6 PUSH1 0x20 DUP4 ADD ADD SWAP4 POP DUP1 DUP6 GT ISZERO PUSH2 0x14A2 JUMPI DUP5 DUP3 MSTORE JUMPDEST PUSH1 0x20 DUP10 ADD SWAP3 POP POP POP JUMPDEST PUSH1 0x20 DUP7 LT PUSH2 0x14E9 JUMPI DUP1 MLOAD DUP3 MSTORE PUSH1 0x20 DUP3 PUSH2 0x14C4 SWAP2 SWAP1 PUSH2 0x22BE JUMP JUMPDEST SWAP2 POP PUSH1 0x20 DUP2 PUSH2 0x14D3 SWAP2 SWAP1 PUSH2 0x22BE JUMP JUMPDEST SWAP1 POP PUSH1 0x20 DUP7 PUSH2 0x14E2 SWAP2 SWAP1 PUSH2 0x22F2 JUMP JUMPDEST SWAP6 POP PUSH2 0x14AB JUMP JUMPDEST PUSH1 0x0 PUSH1 0x1 DUP8 PUSH1 0x20 SUB PUSH2 0x100 EXP SUB SWAP1 POP DUP1 NOT DUP3 MLOAD AND DUP2 DUP5 MLOAD AND DUP2 DUP2 OR DUP6 MSTORE POP POP POP DUP8 SWAP5 POP POP POP POP POP SWAP4 SWAP3 POP POP POP JUMP JUMPDEST PUSH1 0x0 DUP3 PUSH1 0x0 ADD MLOAD SWAP1 POP PUSH2 0x152A DUP4 DUP4 PUSH2 0x10D9 JUMP JUMPDEST POP PUSH2 0x1535 DUP4 DUP3 PUSH2 0x12FB JUMP JUMPDEST POP POP POP POP JUMP JUMPDEST PUSH1 0x40 MLOAD DUP1 PUSH1 0xE0 ADD PUSH1 0x40 MSTORE DUP1 PUSH1 0x0 PUSH1 0x2 DUP2 GT ISZERO PUSH2 0x155A JUMPI PUSH2 0x1559 PUSH2 0x20CF JUMP JUMPDEST JUMPDEST DUP2 MSTORE PUSH1 0x20 ADD PUSH1 0x0 PUSH1 0x2 DUP2 GT ISZERO PUSH2 0x1573 JUMPI PUSH2 0x1572 PUSH2 0x20CF JUMP JUMPDEST JUMPDEST DUP2 MSTORE PUSH1 0x20 ADD PUSH1 0x0 DUP1 DUP2 GT ISZERO PUSH2 0x158B JUMPI PUSH2 0x158A PUSH2 0x20CF JUMP JUMPDEST JUMPDEST DUP2 MSTORE PUSH1 0x20 ADD PUSH1 0x60 DUP2 MSTORE PUSH1 0x20 ADD PUSH1 0x60 DUP2 MSTORE PUSH1 0x20 ADD PUSH1 0x60 DUP2 MSTORE PUSH1 0x20 ADD PUSH1 0x60 DUP2 MSTORE POP SWAP1 JUMP JUMPDEST PUSH1 0x40 MLOAD DUP1 PUSH1 0x40 ADD PUSH1 0x40 MSTORE DUP1 PUSH2 0x15C0 PUSH2 0x15CD JUMP JUMPDEST DUP2 MSTORE PUSH1 0x20 ADD PUSH1 0x0 DUP2 MSTORE POP SWAP1 JUMP JUMPDEST PUSH1 0x40 MLOAD DUP1 PUSH1 0x40 ADD PUSH1 0x40 MSTORE DUP1 PUSH1 0x60 DUP2 MSTORE PUSH1 0x20 ADD PUSH1 0x0 DUP2 MSTORE POP SWAP1 JUMP JUMPDEST PUSH1 0x0 PUSH1 0x40 MLOAD SWAP1 POP SWAP1 JUMP JUMPDEST PUSH1 0x0 DUP1 REVERT JUMPDEST PUSH1 0x0 DUP1 REVERT JUMPDEST PUSH1 0x0 DUP2 SWAP1 POP SWAP2 SWAP1 POP JUMP JUMPDEST PUSH2 0x160E DUP2 PUSH2 0x15FB JUMP JUMPDEST DUP2 EQ PUSH2 0x1619 JUMPI PUSH1 0x0 DUP1 REVERT JUMPDEST POP JUMP JUMPDEST PUSH1 0x0 DUP2 CALLDATALOAD SWAP1 POP PUSH2 0x162B DUP2 PUSH2 0x1605 JUMP JUMPDEST SWAP3 SWAP2 POP POP JUMP JUMPDEST PUSH1 0x0 DUP1 REVERT JUMPDEST PUSH1 0x0 DUP1 REVERT JUMPDEST PUSH1 0x0 PUSH1 0x1F NOT PUSH1 0x1F DUP4 ADD AND SWAP1 POP SWAP2 SWAP1 POP JUMP JUMPDEST PUSH32 0x4E487B7100000000000000000000000000000000000000000000000000000000 PUSH1 0x0 MSTORE PUSH1 0x41 PUSH1 0x4 MSTORE PUSH1 0x24 PUSH1 0x0 REVERT JUMPDEST PUSH2 0x1684 DUP3 PUSH2 0x163B JUMP JUMPDEST DUP2 ADD DUP2 DUP2 LT PUSH8 0xFFFFFFFFFFFFFFFF DUP3 GT OR ISZERO PUSH2 0x16A3 JUMPI PUSH2 0x16A2 PUSH2 0x164C JUMP JUMPDEST JUMPDEST DUP1 PUSH1 0x40 MSTORE POP POP POP JUMP JUMPDEST PUSH1 0x0 PUSH2 0x16B6 PUSH2 0x15E7 JUMP JUMPDEST SWAP1 POP PUSH2 0x16C2 DUP3 DUP3 PUSH2 0x167B JUMP JUMPDEST SWAP2 SWAP1 POP JUMP JUMPDEST PUSH1 0x0 PUSH8 0xFFFFFFFFFFFFFFFF DUP3 GT ISZERO PUSH2 0x16E2 JUMPI PUSH2 0x16E1 PUSH2 0x164C JUMP JUMPDEST JUMPDEST PUSH2 0x16EB DUP3 PUSH2 0x163B JUMP JUMPDEST SWAP1 POP PUSH1 0x20 DUP2 ADD SWAP1 POP SWAP2 SWAP1 POP JUMP JUMPDEST DUP3 DUP2 DUP4 CALLDATACOPY PUSH1 0x0 DUP4 DUP4 ADD MSTORE POP POP POP JUMP JUMPDEST PUSH1 0x0 PUSH2 0x171A PUSH2 0x1715 DUP5 PUSH2 0x16C7 JUMP JUMPDEST PUSH2 0x16AC JUMP JUMPDEST SWAP1 POP DUP3 DUP2 MSTORE PUSH1 0x20 DUP2 ADD DUP5 DUP5 DUP5 ADD GT ISZERO PUSH2 0x1736 JUMPI PUSH2 0x1735 PUSH2 0x1636 JUMP JUMPDEST JUMPDEST PUSH2 0x1741 DUP5 DUP3 DUP6 PUSH2 0x16F8 JUMP JUMPDEST POP SWAP4 SWAP3 POP POP POP JUMP JUMPDEST PUSH1 0x0 DUP3 PUSH1 0x1F DUP4 ADD SLT PUSH2 0x175E JUMPI PUSH2 0x175D PUSH2 0x1631 JUMP JUMPDEST JUMPDEST DUP2 CALLDATALOAD PUSH2 0x176E DUP5 DUP3 PUSH1 0x20 DUP7 ADD PUSH2 0x1707 JUMP JUMPDEST SWAP2 POP POP SWAP3 SWAP2 POP POP JUMP JUMPDEST PUSH1 0x0 DUP1 PUSH1 0x0 PUSH1 0x60 DUP5 DUP7 SUB SLT ISZERO PUSH2 0x1790 JUMPI PUSH2 0x178F PUSH2 0x15F1 JUMP JUMPDEST JUMPDEST PUSH1 0x0 PUSH2 0x179E DUP7 DUP3 DUP8 ADD PUSH2 0x161C JUMP JUMPDEST SWAP4 POP POP PUSH1 0x20 DUP5 ADD CALLDATALOAD PUSH8 0xFFFFFFFFFFFFFFFF DUP2 GT ISZERO PUSH2 0x17BF JUMPI PUSH2 0x17BE PUSH2 0x15F6 JUMP JUMPDEST JUMPDEST PUSH2 0x17CB DUP7 DUP3 DUP8 ADD PUSH2 0x1749 JUMP JUMPDEST SWAP3 POP POP PUSH1 0x40 DUP5 ADD CALLDATALOAD PUSH8 0xFFFFFFFFFFFFFFFF DUP2 GT ISZERO PUSH2 0x17EC JUMPI PUSH2 0x17EB PUSH2 0x15F6 JUMP JUMPDEST JUMPDEST PUSH2 0x17F8 DUP7 DUP3 DUP8 ADD PUSH2 0x1749 JUMP JUMPDEST SWAP2 POP POP SWAP3 POP SWAP3 POP SWAP3 JUMP JUMPDEST PUSH1 0x0 DUP2 MLOAD SWAP1 POP SWAP2 SWAP1 POP JUMP JUMPDEST PUSH1 0x0 DUP3 DUP3 MSTORE PUSH1 0x20 DUP3 ADD SWAP1 POP SWAP3 SWAP2 POP POP JUMP JUMPDEST PUSH1 0x0 JUMPDEST DUP4 DUP2 LT ISZERO PUSH2 0x183C JUMPI DUP1 DUP3 ADD MLOAD DUP2 DUP5 ADD MSTORE PUSH1 0x20 DUP2 ADD SWAP1 POP PUSH2 0x1821 JUMP JUMPDEST PUSH1 0x0 DUP5 DUP5 ADD MSTORE POP POP POP POP JUMP JUMPDEST PUSH1 0x0 PUSH2 0x1853 DUP3 PUSH2 0x1802 JUMP JUMPDEST PUSH2 0x185D DUP2 DUP6 PUSH2 0x180D JUMP JUMPDEST SWAP4 POP PUSH2 0x186D DUP2 DUP6 PUSH1 0x20 DUP7 ADD PUSH2 0x181E JUMP JUMPDEST PUSH2 0x1876 DUP2 PUSH2 0x163B JUMP JUMPDEST DUP5 ADD SWAP2 POP POP SWAP3 SWAP2 POP POP JUMP JUMPDEST PUSH1 0x0 PUSH1 0x20 DUP3 ADD SWAP1 POP DUP2 DUP2 SUB PUSH1 0x0 DUP4 ADD MSTORE PUSH2 0x189B DUP2 DUP5 PUSH2 0x1848 JUMP JUMPDEST SWAP1 POP SWAP3 SWAP2 POP POP JUMP JUMPDEST PUSH1 0x0 PUSH8 0xFFFFFFFFFFFFFFFF DUP3 GT ISZERO PUSH2 0x18BE JUMPI PUSH2 0x18BD PUSH2 0x164C JUMP JUMPDEST JUMPDEST PUSH2 0x18C7 DUP3 PUSH2 0x163B JUMP JUMPDEST SWAP1 POP PUSH1 0x20 DUP2 ADD SWAP1 POP SWAP2 SWAP1 POP JUMP JUMPDEST PUSH1 0x0 PUSH2 0x18E7 PUSH2 0x18E2 DUP5 PUSH2 0x18A3 JUMP JUMPDEST PUSH2 0x16AC JUMP JUMPDEST SWAP1 POP DUP3 DUP2 MSTORE PUSH1 0x20 DUP2 ADD DUP5 DUP5 DUP5 ADD GT ISZERO PUSH2 0x1903 JUMPI PUSH2 0x1902 PUSH2 0x1636 JUMP JUMPDEST JUMPDEST PUSH2 0x190E DUP5 DUP3 DUP6 PUSH2 0x16F8 JUMP JUMPDEST POP SWAP4 SWAP3 POP POP POP JUMP JUMPDEST PUSH1 0x0 DUP3 PUSH1 0x1F DUP4 ADD SLT PUSH2 0x192B JUMPI PUSH2 0x192A PUSH2 0x1631 JUMP JUMPDEST JUMPDEST DUP2 CALLDATALOAD PUSH2 0x193B DUP5 DUP3 PUSH1 0x20 DUP7 ADD PUSH2 0x18D4 JUMP JUMPDEST SWAP2 POP POP SWAP3 SWAP2 POP POP JUMP JUMPDEST PUSH1 0x0 PUSH1 0x20 DUP3 DUP5 SUB SLT ISZERO PUSH2 0x195A JUMPI PUSH2 0x1959 PUSH2 0x15F1 JUMP JUMPDEST JUMPDEST PUSH1 0x0 DUP3 ADD CALLDATALOAD PUSH8 0xFFFFFFFFFFFFFFFF DUP2 GT ISZERO PUSH2 0x1978 JUMPI PUSH2 0x1977 PUSH2 0x15F6 JUMP JUMPDEST JUMPDEST PUSH2 0x1984 DUP5 DUP3 DUP6 ADD PUSH2 0x1916 JUMP JUMPDEST SWAP2 POP POP SWAP3 SWAP2 POP POP JUMP JUMPDEST PUSH2 0x1996 DUP2 PUSH2 0x15FB JUMP JUMPDEST DUP3 MSTORE POP POP JUMP JUMPDEST PUSH1 0x0 PUSH1 0x20 DUP3 ADD SWAP1 POP PUSH2 0x19B1 PUSH1 0x0 DUP4 ADD DUP5 PUSH2 0x198D JUMP JUMPDEST SWAP3 SWAP2 POP POP JUMP JUMPDEST PUSH1 0x0 PUSH20 0xFFFFFFFFFFFFFFFFFFFFFFFFFFFFFFFFFFFFFFFF DUP3 AND SWAP1 POP SWAP2 SWAP1 POP JUMP JUMPDEST PUSH1 0x0 PUSH2 0x19E2 DUP3 PUSH2 0x19B7 JUMP JUMPDEST SWAP1 POP SWAP2 SWAP1 POP JUMP JUMPDEST PUSH2 0x19F2 DUP2 PUSH2 0x19D7 JUMP JUMPDEST DUP3 MSTORE POP POP JUMP JUMPDEST PUSH1 0x0 PUSH1 0x20 DUP3 ADD SWAP1 POP PUSH2 0x1A0D PUSH1 0x0 DUP4 ADD DUP5 PUSH2 0x19E9 JUMP JUMPDEST SWAP3 SWAP2 POP POP JUMP JUMPDEST PUSH1 0x0 DUP2 MLOAD SWAP1 POP SWAP2 SWAP1 POP JUMP JUMPDEST PUSH1 0x0 DUP3 DUP3 MSTORE PUSH1 0x20 DUP3 ADD SWAP1 POP SWAP3 SWAP2 POP POP JUMP JUMPDEST PUSH1 0x0 PUSH2 0x1A3A DUP3 PUSH2 0x1A13 JUMP JUMPDEST PUSH2 0x1A44 DUP2 DUP6 PUSH2 0x1A1E JUMP JUMPDEST SWAP4 POP PUSH2 0x1A54 DUP2 DUP6 PUSH1 0x20 DUP7 ADD PUSH2 0x181E JUMP JUMPDEST PUSH2 0x1A5D DUP2 PUSH2 0x163B JUMP JUMPDEST DUP5 ADD SWAP2 POP POP SWAP3 SWAP2 POP POP JUMP JUMPDEST PUSH1 0x0 PUSH1 0x20 DUP3 ADD SWAP1 POP DUP2 DUP2 SUB PUSH1 0x0 DUP4 ADD MSTORE PUSH2 0x1A82 DUP2 DUP5 PUSH2 0x1A2F JUMP JUMPDEST SWAP1 POP SWAP3 SWAP2 POP POP JUMP JUMPDEST PUSH2 0x1A93 DUP2 PUSH2 0x19D7 JUMP JUMPDEST DUP2 EQ PUSH2 0x1A9E JUMPI PUSH1 0x0 DUP1 REVERT JUMPDEST POP JUMP JUMPDEST PUSH1 0x0 DUP2 CALLDATALOAD SWAP1 POP PUSH2 0x1AB0 DUP2 PUSH2 0x1A8A JUMP JUMPDEST SWAP3 SWAP2 POP POP JUMP JUMPDEST PUSH1 0x0 PUSH1 0x20 DUP3 DUP5 SUB SLT ISZERO PUSH2 0x1ACC JUMPI PUSH2 0x1ACB PUSH2 0x15F1 JUMP JUMPDEST JUMPDEST PUSH1 0x0 PUSH2 0x1ADA DUP5 DUP3 DUP6 ADD PUSH2 0x1AA1 JUMP JUMPDEST SWAP2 POP POP SWAP3 SWAP2 POP POP JUMP JUMPDEST PUSH32 0x4E487B7100000000000000000000000000000000000000000000000000000000 PUSH1 0x0 MSTORE PUSH1 0x22 PUSH1 0x4 MSTORE PUSH1 0x24 PUSH1 0x0 REVERT JUMPDEST PUSH1 0x0 PUSH1 0x2 DUP3 DIV SWAP1 POP PUSH1 0x1 DUP3 AND DUP1 PUSH2 0x1B2A JUMPI PUSH1 0x7F DUP3 AND SWAP2 POP JUMPDEST PUSH1 0x20 DUP3 LT DUP2 SUB PUSH2 0x1B3D JUMPI PUSH2 0x1B3C PUSH2 0x1AE3 JUMP JUMPDEST JUMPDEST POP SWAP2 SWAP1 POP JUMP JUMPDEST PUSH32 0x4E487B7100000000000000000000000000000000000000000000000000000000 PUSH1 0x0 MSTORE PUSH1 0x32 PUSH1 0x4 MSTORE PUSH1 0x24 PUSH1 0x0 REVERT JUMPDEST PUSH32 0x4D7573742062652070726F706F736564206F776E657200000000000000000000 PUSH1 0x0 DUP3 ADD MSTORE POP JUMP JUMPDEST PUSH1 0x0 PUSH2 0x1BA8 PUSH1 0x16 DUP4 PUSH2 0x1A1E JUMP JUMPDEST SWAP2 POP PUSH2 0x1BB3 DUP3 PUSH2 0x1B72 JUMP JUMPDEST PUSH1 0x20 DUP3 ADD SWAP1 POP SWAP2 SWAP1 POP JUMP JUMPDEST PUSH1 0x0 PUSH1 0x20 DUP3 ADD SWAP1 POP DUP2 DUP2 SUB PUSH1 0x0 DUP4 ADD MSTORE PUSH2 0x1BD7 DUP2 PUSH2 0x1B9B JUMP JUMPDEST SWAP1 POP SWAP2 SWAP1 POP JUMP JUMPDEST PUSH1 0x0 DUP2 SWAP1 POP DUP2 PUSH1 0x0 MSTORE PUSH1 0x20 PUSH1 0x0 KECCAK256 SWAP1 POP SWAP2 SWAP1 POP JUMP JUMPDEST PUSH1 0x0 PUSH1 0x20 PUSH1 0x1F DUP4 ADD DIV SWAP1 POP SWAP2 SWAP1 POP JUMP JUMPDEST PUSH1 0x0 DUP3 DUP3 SHL SWAP1 POP SWAP3 SWAP2 POP POP JUMP JUMPDEST PUSH1 0x0 PUSH1 0x8 DUP4 MUL PUSH2 0x1C40 PUSH32 0xFFFFFFFFFFFFFFFFFFFFFFFFFFFFFFFFFFFFFFFFFFFFFFFFFFFFFFFFFFFFFFFF DUP3 PUSH2 0x1C03 JUMP JUMPDEST PUSH2 0x1C4A DUP7 DUP4 PUSH2 0x1C03 JUMP JUMPDEST SWAP6 POP DUP1 NOT DUP5 AND SWAP4 POP DUP1 DUP7 AND DUP5 OR SWAP3 POP POP POP SWAP4 SWAP3 POP POP POP JUMP JUMPDEST PUSH1 0x0 DUP2 SWAP1 POP SWAP2 SWAP1 POP JUMP JUMPDEST PUSH1 0x0 DUP2 SWAP1 POP SWAP2 SWAP1 POP JUMP JUMPDEST PUSH1 0x0 PUSH2 0x1C91 PUSH2 0x1C8C PUSH2 0x1C87 DUP5 PUSH2 0x1C62 JUMP JUMPDEST PUSH2 0x1C6C JUMP JUMPDEST PUSH2 0x1C62 JUMP JUMPDEST SWAP1 POP SWAP2 SWAP1 POP JUMP JUMPDEST PUSH1 0x0 DUP2 SWAP1 POP SWAP2 SWAP1 POP JUMP JUMPDEST PUSH2 0x1CAB DUP4 PUSH2 0x1C76 JUMP JUMPDEST PUSH2 0x1CBF PUSH2 0x1CB7 DUP3 PUSH2 0x1C98 JUMP JUMPDEST DUP5 DUP5 SLOAD PUSH2 0x1C10 JUMP JUMPDEST DUP3 SSTORE POP POP POP POP JUMP JUMPDEST PUSH1 0x0 SWAP1 JUMP JUMPDEST PUSH2 0x1CD4 PUSH2 0x1CC7 JUMP JUMPDEST PUSH2 0x1CDF DUP2 DUP5 DUP5 PUSH2 0x1CA2 JUMP JUMPDEST POP POP POP JUMP JUMPDEST JUMPDEST DUP2 DUP2 LT ISZERO PUSH2 0x1D03 JUMPI PUSH2 0x1CF8 PUSH1 0x0 DUP3 PUSH2 0x1CCC JUMP JUMPDEST PUSH1 0x1 DUP2 ADD SWAP1 POP PUSH2 0x1CE5 JUMP JUMPDEST POP POP JUMP JUMPDEST PUSH1 0x1F DUP3 GT ISZERO PUSH2 0x1D48 JUMPI PUSH2 0x1D19 DUP2 PUSH2 0x1BDE JUMP JUMPDEST PUSH2 0x1D22 DUP5 PUSH2 0x1BF3 JUMP JUMPDEST DUP2 ADD PUSH1 0x20 DUP6 LT ISZERO PUSH2 0x1D31 JUMPI DUP2 SWAP1 POP JUMPDEST PUSH2 0x1D45 PUSH2 0x1D3D DUP6 PUSH2 0x1BF3 JUMP JUMPDEST DUP4 ADD DUP3 PUSH2 0x1CE4 JUMP JUMPDEST POP POP JUMPDEST POP POP POP JUMP JUMPDEST PUSH1 0x0 DUP3 DUP3 SHR SWAP1 POP SWAP3 SWAP2 POP POP JUMP JUMPDEST PUSH1 0x0 PUSH2 0x1D6B PUSH1 0x0 NOT DUP5 PUSH1 0x8 MUL PUSH2 0x1D4D JUMP JUMPDEST NOT DUP1 DUP4 AND SWAP2 POP POP SWAP3 SWAP2 POP POP JUMP JUMPDEST PUSH1 0x0 PUSH2 0x1D84 DUP4 DUP4 PUSH2 0x1D5A JUMP JUMPDEST SWAP2 POP DUP3 PUSH1 0x2 MUL DUP3 OR SWAP1 POP SWAP3 SWAP2 POP POP JUMP JUMPDEST PUSH2 0x1D9D DUP3 PUSH2 0x1802 JUMP JUMPDEST PUSH8 0xFFFFFFFFFFFFFFFF DUP2 GT ISZERO PUSH2 0x1DB6 JUMPI PUSH2 0x1DB5 PUSH2 0x164C JUMP JUMPDEST JUMPDEST PUSH2 0x1DC0 DUP3 SLOAD PUSH2 0x1B12 JUMP JUMPDEST PUSH2 0x1DCB DUP3 DUP3 DUP6 PUSH2 0x1D07 JUMP JUMPDEST PUSH1 0x0 PUSH1 0x20 SWAP1 POP PUSH1 0x1F DUP4 GT PUSH1 0x1 DUP2 EQ PUSH2 0x1DFE JUMPI PUSH1 0x0 DUP5 ISZERO PUSH2 0x1DEC JUMPI DUP3 DUP8 ADD MLOAD SWAP1 POP JUMPDEST PUSH2 0x1DF6 DUP6 DUP3 PUSH2 0x1D78 JUMP JUMPDEST DUP7 SSTORE POP PUSH2 0x1E5E JUMP JUMPDEST PUSH1 0x1F NOT DUP5 AND PUSH2 0x1E0C DUP7 PUSH2 0x1BDE JUMP JUMPDEST PUSH1 0x0 JUMPDEST DUP3 DUP2 LT ISZERO PUSH2 0x1E34 JUMPI DUP5 DUP10 ADD MLOAD DUP3 SSTORE PUSH1 0x1 DUP3 ADD SWAP2 POP PUSH1 0x20 DUP6 ADD SWAP5 POP PUSH1 0x20 DUP2 ADD SWAP1 POP PUSH2 0x1E0F JUMP JUMPDEST DUP7 DUP4 LT ISZERO PUSH2 0x1E51 JUMPI DUP5 DUP10 ADD MLOAD PUSH2 0x1E4D PUSH1 0x1F DUP10 AND DUP3 PUSH2 0x1D5A JUMP JUMPDEST DUP4 SSTORE POP JUMPDEST PUSH1 0x1 PUSH1 0x2 DUP9 MUL ADD DUP9 SSTORE POP POP POP JUMPDEST POP POP POP POP POP POP JUMP JUMPDEST PUSH1 0x0 DUP2 SWAP1 POP DUP2 PUSH1 0x0 MSTORE PUSH1 0x20 PUSH1 0x0 KECCAK256 SWAP1 POP SWAP2 SWAP1 POP JUMP JUMPDEST PUSH1 0x1F DUP3 GT ISZERO PUSH2 0x1EBC JUMPI PUSH2 0x1E8D DUP2 PUSH2 0x1E66 JUMP JUMPDEST PUSH2 0x1E96 DUP5 PUSH2 0x1BF3 JUMP JUMPDEST DUP2 ADD PUSH1 0x20 DUP6 LT ISZERO PUSH2 0x1EA5 JUMPI DUP2 SWAP1 POP JUMPDEST PUSH2 0x1EB9 PUSH2 0x1EB1 DUP6 PUSH2 0x1BF3 JUMP JUMPDEST DUP4 ADD DUP3 PUSH2 0x1CE4 JUMP JUMPDEST POP POP JUMPDEST POP POP POP JUMP JUMPDEST PUSH2 0x1ECA DUP3 PUSH2 0x1A13 JUMP JUMPDEST PUSH8 0xFFFFFFFFFFFFFFFF DUP2 GT ISZERO PUSH2 0x1EE3 JUMPI PUSH2 0x1EE2 PUSH2 0x164C JUMP JUMPDEST JUMPDEST PUSH2 0x1EED DUP3 SLOAD PUSH2 0x1B12 JUMP JUMPDEST PUSH2 0x1EF8 DUP3 DUP3 DUP6 PUSH2 0x1E7B JUMP JUMPDEST PUSH1 0x0 PUSH1 0x20 SWAP1 POP PUSH1 0x1F DUP4 GT PUSH1 0x1 DUP2 EQ PUSH2 0x1F2B JUMPI PUSH1 0x0 DUP5 ISZERO PUSH2 0x1F19 JUMPI DUP3 DUP8 ADD MLOAD SWAP1 POP JUMPDEST PUSH2 0x1F23 DUP6 DUP3 PUSH2 0x1D78 JUMP JUMPDEST DUP7 SSTORE POP PUSH2 0x1F8B JUMP JUMPDEST PUSH1 0x1F NOT DUP5 AND PUSH2 0x1F39 DUP7 PUSH2 0x1E66 JUMP JUMPDEST PUSH1 0x0 JUMPDEST DUP3 DUP2 LT ISZERO PUSH2 0x1F61 JUMPI DUP5 DUP10 ADD MLOAD DUP3 SSTORE PUSH1 0x1 DUP3 ADD SWAP2 POP PUSH1 0x20 DUP6 ADD SWAP5 POP PUSH1 0x20 DUP2 ADD SWAP1 POP PUSH2 0x1F3C JUMP JUMPDEST DUP7 DUP4 LT ISZERO PUSH2 0x1F7E JUMPI DUP5 DUP10 ADD MLOAD PUSH2 0x1F7A PUSH1 0x1F DUP10 AND DUP3 PUSH2 0x1D5A JUMP JUMPDEST DUP4 SSTORE POP JUMPDEST PUSH1 0x1 PUSH1 0x2 DUP9 MUL ADD DUP9 SSTORE POP POP POP JUMPDEST POP POP POP POP POP POP JUMP JUMPDEST PUSH1 0x0 DUP2 SLOAD PUSH2 0x1FA0 DUP2 PUSH2 0x1B12 JUMP JUMPDEST PUSH2 0x1FAA DUP2 DUP7 PUSH2 0x180D JUMP JUMPDEST SWAP5 POP PUSH1 0x1 DUP3 AND PUSH1 0x0 DUP2 EQ PUSH2 0x1FC5 JUMPI PUSH1 0x1 DUP2 EQ PUSH2 0x1FDB JUMPI PUSH2 0x200E JUMP JUMPDEST PUSH1 0xFF NOT DUP4 AND DUP7 MSTORE DUP2 ISZERO ISZERO PUSH1 0x20 MUL DUP7 ADD SWAP4 POP PUSH2 0x200E JUMP JUMPDEST PUSH2 0x1FE4 DUP6 PUSH2 0x1BDE JUMP JUMPDEST PUSH1 0x0 JUMPDEST DUP4 DUP2 LT ISZERO PUSH2 0x2006 JUMPI DUP2 SLOAD DUP2 DUP10 ADD MSTORE PUSH1 0x1 DUP3 ADD SWAP2 POP PUSH1 0x20 DUP2 ADD SWAP1 POP PUSH2 0x1FE7 JUMP JUMPDEST DUP1 DUP9 ADD SWAP6 POP POP POP JUMPDEST POP POP POP SWAP3 SWAP2 POP POP JUMP JUMPDEST PUSH1 0x0 PUSH1 0x60 DUP3 ADD SWAP1 POP DUP2 DUP2 SUB PUSH1 0x0 DUP4 ADD MSTORE PUSH2 0x2031 DUP2 DUP7 PUSH2 0x1A2F JUMP JUMPDEST SWAP1 POP DUP2 DUP2 SUB PUSH1 0x20 DUP4 ADD MSTORE PUSH2 0x2045 DUP2 DUP6 PUSH2 0x1F93 JUMP JUMPDEST SWAP1 POP DUP2 DUP2 SUB PUSH1 0x40 DUP4 ADD MSTORE PUSH2 0x2059 DUP2 DUP5 PUSH2 0x1F93 JUMP JUMPDEST SWAP1 POP SWAP5 SWAP4 POP POP POP POP JUMP JUMPDEST PUSH32 0x4F6E6C792063616C6C61626C65206279206F776E657200000000000000000000 PUSH1 0x0 DUP3 ADD MSTORE POP JUMP JUMPDEST PUSH1 0x0 PUSH2 0x2099 PUSH1 0x16 DUP4 PUSH2 0x1A1E JUMP JUMPDEST SWAP2 POP PUSH2 0x20A4 DUP3 PUSH2 0x2063 JUMP JUMPDEST PUSH1 0x20 DUP3 ADD SWAP1 POP SWAP2 SWAP1 POP JUMP JUMPDEST PUSH1 0x0 PUSH1 0x20 DUP3 ADD SWAP1 POP DUP2 DUP2 SUB PUSH1 0x0 DUP4 ADD MSTORE PUSH2 0x20C8 DUP2 PUSH2 0x208C JUMP JUMPDEST SWAP1 POP SWAP2 SWAP1 POP JUMP JUMPDEST PUSH32 0x4E487B7100000000000000000000000000000000000000000000000000000000 PUSH1 0x0 MSTORE PUSH1 0x21 PUSH1 0x4 MSTORE PUSH1 0x24 PUSH1 0x0 REVERT JUMPDEST PUSH1 0x0 PUSH8 0xFFFFFFFFFFFFFFFF DUP3 AND SWAP1 POP SWAP2 SWAP1 POP JUMP JUMPDEST PUSH2 0x211B DUP2 PUSH2 0x20FE JUMP JUMPDEST DUP3 MSTORE POP POP JUMP JUMPDEST PUSH1 0x0 PUSH2 0xFFFF DUP3 AND SWAP1 POP SWAP2 SWAP1 POP JUMP JUMPDEST PUSH2 0x2138 DUP2 PUSH2 0x2121 JUMP JUMPDEST DUP3 MSTORE POP POP JUMP JUMPDEST PUSH1 0x0 PUSH4 0xFFFFFFFF DUP3 AND SWAP1 POP SWAP2 SWAP1 POP JUMP JUMPDEST PUSH2 0x2157 DUP2 PUSH2 0x213E JUMP JUMPDEST DUP3 MSTORE POP POP JUMP JUMPDEST PUSH1 0x0 PUSH1 0xA0 DUP3 ADD SWAP1 POP PUSH2 0x2172 PUSH1 0x0 DUP4 ADD DUP9 PUSH2 0x2112 JUMP JUMPDEST DUP2 DUP2 SUB PUSH1 0x20 DUP4 ADD MSTORE PUSH2 0x2184 DUP2 DUP8 PUSH2 0x1848 JUMP JUMPDEST SWAP1 POP PUSH2 0x2193 PUSH1 0x40 DUP4 ADD DUP7 PUSH2 0x212F JUMP JUMPDEST PUSH2 0x21A0 PUSH1 0x60 DUP4 ADD DUP6 PUSH2 0x214E JUMP JUMPDEST PUSH2 0x21AD PUSH1 0x80 DUP4 ADD DUP5 PUSH2 0x198D JUMP JUMPDEST SWAP7 SWAP6 POP POP POP POP POP POP JUMP JUMPDEST PUSH1 0x0 DUP2 MLOAD SWAP1 POP PUSH2 0x21C6 DUP2 PUSH2 0x1605 JUMP JUMPDEST SWAP3 SWAP2 POP POP JUMP JUMPDEST PUSH1 0x0 PUSH1 0x20 DUP3 DUP5 SUB SLT ISZERO PUSH2 0x21E2 JUMPI PUSH2 0x21E1 PUSH2 0x15F1 JUMP JUMPDEST JUMPDEST PUSH1 0x0 PUSH2 0x21F0 DUP5 DUP3 DUP6 ADD PUSH2 0x21B7 JUMP JUMPDEST SWAP2 POP POP SWAP3 SWAP2 POP POP JUMP JUMPDEST PUSH32 0x43616E6E6F74207472616E7366657220746F2073656C66000000000000000000 PUSH1 0x0 DUP3 ADD MSTORE POP JUMP JUMPDEST PUSH1 0x0 PUSH2 0x222F PUSH1 0x17 DUP4 PUSH2 0x1A1E JUMP JUMPDEST SWAP2 POP PUSH2 0x223A DUP3 PUSH2 0x21F9 JUMP JUMPDEST PUSH1 0x20 DUP3 ADD SWAP1 POP SWAP2 SWAP1 POP JUMP JUMPDEST PUSH1 0x0 PUSH1 0x20 DUP3 ADD SWAP1 POP DUP2 DUP2 SUB PUSH1 0x0 DUP4 ADD MSTORE PUSH2 0x225E DUP2 PUSH2 0x2222 JUMP JUMPDEST SWAP1 POP SWAP2 SWAP1 POP JUMP JUMPDEST PUSH2 0x226E DUP2 PUSH2 0x1C62 JUMP JUMPDEST DUP3 MSTORE POP POP JUMP JUMPDEST PUSH1 0x0 PUSH1 0x20 DUP3 ADD SWAP1 POP PUSH2 0x2289 PUSH1 0x0 DUP4 ADD DUP5 PUSH2 0x2265 JUMP JUMPDEST SWAP3 SWAP2 POP POP JUMP JUMPDEST PUSH32 0x4E487B7100000000000000000000000000000000000000000000000000000000 PUSH1 0x0 MSTORE PUSH1 0x11 PUSH1 0x4 MSTORE PUSH1 0x24 PUSH1 0x0 REVERT JUMPDEST PUSH1 0x0 PUSH2 0x22C9 DUP3 PUSH2 0x1C62 JUMP JUMPDEST SWAP2 POP PUSH2 0x22D4 DUP4 PUSH2 0x1C62 JUMP JUMPDEST SWAP3 POP DUP3 DUP3 ADD SWAP1 POP DUP1 DUP3 GT ISZERO PUSH2 0x22EC JUMPI PUSH2 0x22EB PUSH2 0x228F JUMP JUMPDEST JUMPDEST SWAP3 SWAP2 POP POP JUMP JUMPDEST PUSH1 0x0 PUSH2 0x22FD DUP3 PUSH2 0x1C62 JUMP JUMPDEST SWAP2 POP PUSH2 0x2308 DUP4 PUSH2 0x1C62 JUMP JUMPDEST SWAP3 POP DUP3 DUP3 SUB SWAP1 POP DUP2 DUP2 GT ISZERO PUSH2 0x2320 JUMPI PUSH2 0x231F PUSH2 0x228F JUMP JUMPDEST JUMPDEST SWAP3 SWAP2 POP POP JUMP JUMPDEST PUSH32 0x4E487B7100000000000000000000000000000000000000000000000000000000 PUSH1 0x0 MSTORE PUSH1 0x12 PUSH1 0x4 MSTORE PUSH1 0x24 PUSH1 0x0 REVERT JUMPDEST PUSH1 0x0 PUSH2 0x2360 DUP3 PUSH2 0x1C62 JUMP JUMPDEST SWAP2 POP PUSH2 0x236B DUP4 PUSH2 0x1C62 JUMP JUMPDEST SWAP3 POP DUP3 PUSH2 0x237B JUMPI PUSH2 0x237A PUSH2 0x2326 JUMP JUMPDEST JUMPDEST DUP3 DUP3 MOD SWAP1 POP SWAP3 SWAP2 POP POP JUMP JUMPDEST PUSH1 0x0 PUSH2 0x2391 DUP3 PUSH2 0x1C62 JUMP JUMPDEST SWAP2 POP PUSH2 0x239C DUP4 PUSH2 0x1C62 JUMP JUMPDEST SWAP3 POP DUP3 DUP3 MUL PUSH2 0x23AA DUP2 PUSH2 0x1C62 JUMP JUMPDEST SWAP2 POP DUP3 DUP3 DIV DUP5 EQ DUP4 ISZERO OR PUSH2 0x23C1 JUMPI PUSH2 0x23C0 PUSH2 0x228F JUMP JUMPDEST JUMPDEST POP SWAP3 SWAP2 POP POP JUMP JUMPDEST PUSH1 0x0 DUP2 PUSH1 0x1 SHR SWAP1 POP SWAP2 SWAP1 POP JUMP JUMPDEST PUSH1 0x0 DUP1 DUP3 SWAP2 POP DUP4 SWAP1 POP JUMPDEST PUSH1 0x1 DUP6 GT ISZERO PUSH2 0x241F JUMPI DUP1 DUP7 DIV DUP2 GT ISZERO PUSH2 0x23FB JUMPI PUSH2 0x23FA PUSH2 0x228F JUMP JUMPDEST JUMPDEST PUSH1 0x1 DUP6 AND ISZERO PUSH2 0x240A JUMPI DUP1 DUP3 MUL SWAP2 POP JUMPDEST DUP1 DUP2 MUL SWAP1 POP PUSH2 0x2418 DUP6 PUSH2 0x23C8 JUMP JUMPDEST SWAP5 POP PUSH2 0x23DF JUMP JUMPDEST SWAP5 POP SWAP5 SWAP3 POP POP POP JUMP JUMPDEST PUSH1 0x0 DUP3 PUSH2 0x2438 JUMPI PUSH1 0x1 SWAP1 POP PUSH2 0x24F4 JUMP JUMPDEST DUP2 PUSH2 0x2446 JUMPI PUSH1 0x0 SWAP1 POP PUSH2 0x24F4 JUMP JUMPDEST DUP2 PUSH1 0x1 DUP2 EQ PUSH2 0x245C JUMPI PUSH1 0x2 DUP2 EQ PUSH2 0x2466 JUMPI PUSH2 0x2495 JUMP JUMPDEST PUSH1 0x1 SWAP2 POP POP PUSH2 0x24F4 JUMP JUMPDEST PUSH1 0xFF DUP5 GT ISZERO PUSH2 0x2478 JUMPI PUSH2 0x2477 PUSH2 0x228F JUMP JUMPDEST JUMPDEST DUP4 PUSH1 0x2 EXP SWAP2 POP DUP5 DUP3 GT ISZERO PUSH2 0x248F JUMPI PUSH2 0x248E PUSH2 0x228F JUMP JUMPDEST JUMPDEST POP PUSH2 0x24F4 JUMP JUMPDEST POP PUSH1 0x20 DUP4 LT PUSH2 0x133 DUP4 LT AND PUSH1 0x4E DUP5 LT PUSH1 0xB DUP5 LT AND OR ISZERO PUSH2 0x24CA JUMPI DUP3 DUP3 EXP SWAP1 POP DUP4 DUP2 GT ISZERO PUSH2 0x24C5 JUMPI PUSH2 0x24C4 PUSH2 0x228F JUMP JUMPDEST JUMPDEST PUSH2 0x24F4 JUMP JUMPDEST PUSH2 0x24D7 DUP5 DUP5 DUP5 PUSH1 0x1 PUSH2 0x23D5 JUMP JUMPDEST SWAP3 POP SWAP1 POP DUP2 DUP5 DIV DUP2 GT ISZERO PUSH2 0x24EE JUMPI PUSH2 0x24ED PUSH2 0x228F JUMP JUMPDEST JUMPDEST DUP2 DUP2 MUL SWAP1 POP JUMPDEST SWAP4 SWAP3 POP POP POP JUMP JUMPDEST PUSH1 0x0 PUSH2 0x2506 DUP3 PUSH2 0x1C62 JUMP JUMPDEST SWAP2 POP PUSH2 0x2511 DUP4 PUSH2 0x1C62 JUMP JUMPDEST SWAP3 POP PUSH2 0x253E PUSH32 0xFFFFFFFFFFFFFFFFFFFFFFFFFFFFFFFFFFFFFFFFFFFFFFFFFFFFFFFFFFFFFFFF DUP5 DUP5 PUSH2 0x2428 JUMP JUMPDEST SWAP1 POP SWAP3 SWAP2 POP POP JUMP INVALID LOG2 PUSH5 0x6970667358 0x22 SLT KECCAK256 0xA6 SUB SWAP5 0xF STOP 0xD7 DUP9 LOG1 CALLDATALOAD 0xBE 0xCA 0xB5 CODECOPY DUP5 REVERT PUSH29 0x15BFD46828263E47EA9179BB5839D33664736F6C63430008180033636F PUSH15 0x737420706172616D203D2061726773 JUMPDEST ADDRESS TSTORE EXTCODESIZE PUSH4 0x6F6E7374 KECCAK256 PUSH2 0x7069 MSTORE PUSH6 0x73706F6E7365 KECCAK256 RETURNDATASIZE KECCAK256 PUSH2 0x7761 PUSH10 0x742046756E6374696F6E PUSH20 0x2E6D616B654874747052657175657374287B7572 PUSH13 0x3A206068747470733A2F2F6170 PUSH10 0x2E6A736F6E62696E2E69 PUSH16 0x2F76332F622F247B706172616D7D2F60 PUSH30 0x293B69662028617069526573706F6E73652E6572726F7229207B7468726F PUSH24 0x204572726F72282752657175657374206661696C65642729 EXTCODESIZE PUSH30 0x636F6E7374207B2064617461207D203D20617069526573706F6E73653B63 PUSH16 0x6E7374207265746F726E6F203D202727 KECCAK256 0x2B KECCAK256 PUSH5 0x6174612E72 PUSH6 0x636F72642E52 PUSH2 0x7469 PUSH15 0x67202B20277C27202B204A534F4E2E PUSH20 0x7472696E6769667928646174612E7265636F7264 0x2E POP PUSH2 0x7274 PUSH15 0x657273293B72657475726E2046756E PUSH4 0x74696F6E PUSH20 0x2E656E636F6465537472696E67287265746F726E PUSH16 0x293B0000000000000000000000000000 "},"methodIdentifiers":{"acceptOwnership()":"79ba5097","debugRetorno()":"cf40f249","handleOracleFulfillment(bytes32,bytes,bytes)":"0ca76175","owner()":"8da5cb5b","s_lastError()":"4b0795a8","s_lastRequestId()":"b1e21749","s_lastResponse()":"3944ea3a","sendRequestOffChain(string)":"3e3ede5a","transferOwnership(address)":"f2fde38b"}}}}}