{
  "_format": "hh-sol-artifact-1",
  "contractName": "OverTrustFunctionsConsumer",
  "sourceName": "contracts/OverTrustFunctionsConsumer.sol",
  "abi": [
    {
      "inputs": [],
      "stateMutability": "nonpayable",
      "type": "constructor"
    },
    {
      "inputs": [],
      "name": "EmptyArgs",
      "type": "error"
    },
    {
      "inputs": [],
      "name": "EmptySource",
      "type": "error"
    },
    {
      "inputs": [],
      "name": "NoInlineSecrets",
      "type": "error"
    },
    {
      "inputs": [],
      "name": "OnlyRouterCanFulfill",
      "type": "error"
    },
    {
      "inputs": [
        {
          "internalType": "bytes32",
          "name": "requestId",
          "type": "bytes32"
        }
      ],
      "name": "UnexpectedRequestID",
      "type": "error"
    },
    {
      "anonymous": false,
      "inputs": [
        {
          "indexed": true,
          "internalType": "address",
          "name": "from",
          "type": "address"
        },
        {
          "indexed": true,
          "internalType": "address",
          "name": "to",
          "type": "address"
        }
      ],
      "name": "OwnershipTransferRequested",
      "type": "event"
    },
    {
      "anonymous": false,
      "inputs": [
        {
          "indexed": true,
          "internalType": "address",
          "name": "from",
          "type": "address"
        },
        {
          "indexed": true,
          "internalType": "address",
          "name": "to",
          "type": "address"
        }
      ],
      "name": "OwnershipTransferred",
      "type": "event"
    },
    {
      "anonymous": false,
      "inputs": [
        {
          "indexed": true,
          "internalType": "bytes32",
          "name": "id",
          "type": "bytes32"
        }
      ],
      "name": "RequestFulfilled",
      "type": "event"
    },
    {
      "anonymous": false,
      "inputs": [
        {
          "indexed": true,
          "internalType": "bytes32",
          "name": "id",
          "type": "bytes32"
        }
      ],
      "name": "RequestSent",
      "type": "event"
    },
    {
      "anonymous": false,
      "inputs": [
        {
          "indexed": true,
          "internalType": "bytes32",
          "name": "requestId",
          "type": "bytes32"
        },
        {
          "indexed": false,
          "internalType": "string",
          "name": "character",
          "type": "string"
        },
        {
          "indexed": false,
          "internalType": "bytes",
          "name": "response",
          "type": "bytes"
        },
        {
          "indexed": false,
          "internalType": "bytes",
          "name": "err",
          "type": "bytes"
        }
      ],
      "name": "ResponseOffChainData",
      "type": "event"
    },
    {
      "inputs": [],
      "name": "acceptOwnership",
      "outputs": [],
      "stateMutability": "nonpayable",
      "type": "function"
    },
    {
      "inputs": [],
      "name": "debugRetorno",
      "outputs": [
        {
          "internalType": "string",
          "name": "",
          "type": "string"
        }
      ],
      "stateMutability": "view",
      "type": "function"
    },
    {
      "inputs": [
        {
          "internalType": "bytes32",
          "name": "requestId",
          "type": "bytes32"
        },
        {
          "internalType": "bytes",
          "name": "response",
          "type": "bytes"
        },
        {
          "internalType": "bytes",
          "name": "err",
          "type": "bytes"
        }
      ],
      "name": "handleOracleFulfillment",
      "outputs": [],
      "stateMutability": "nonpayable",
      "type": "function"
    },
    {
      "inputs": [],
      "name": "owner",
      "outputs": [
        {
          "internalType": "address",
          "name": "",
          "type": "address"
        }
      ],
      "stateMutability": "view",
      "type": "function"
    },
    {
      "inputs": [],
      "name": "s_lastError",
      "outputs": [
        {
          "internalType": "bytes",
          "name": "",
          "type": "bytes"
        }
      ],
      "stateMutability": "view",
      "type": "function"
    },
    {
      "inputs": [],
      "name": "s_lastRequestId",
      "outputs": [
        {
          "internalType": "bytes32",
          "name": "",
          "type": "bytes32"
        }
      ],
      "stateMutability": "view",
      "type": "function"
    },
    {
      "inputs": [],
      "name": "s_lastResponse",
      "outputs": [
        {
          "internalType": "bytes",
          "name": "",
          "type": "bytes"
        }
      ],
      "stateMutability": "view",
      "type": "function"
    },
    {
      "inputs": [
        {
          "internalType": "string",
          "name": "arg",
          "type": "string"
        }
      ],
      "name": "sendRequestOffChain",
      "outputs": [
        {
          "internalType": "bytes32",
          "name": "requestId",
          "type": "bytes32"
        }
      ],
      "stateMutability": "nonpayable",
      "type": "function"
    },
    {
      "inputs": [
        {
          "internalType": "address",
          "name": "to",
          "type": "address"
        }
      ],
      "name": "transferOwnership",
      "outputs": [],
      "stateMutability": "nonpayable",
      "type": "function"
    }
  ],
  "bytecode": "0x60a060405273a9d587a00a31a52ed70d6026794a8fc5e2f5dcb0600260006101000a81548173ffffffffffffffffffffffffffffffffffffffff021916908373ffffffffffffffffffffffffffffffffffffffff1602179055507f66756e2d6176616c616e6368652d66756a692d3100000000000000000000000060001b600355620493e0600860006101000a81548163ffffffff021916908363ffffffff16021790555060405180610180016040528061014a815260200162002d6261014a913960099081620000d19190620005e7565b50348015620000df57600080fd5b5033806000600260009054906101000a900473ffffffffffffffffffffffffffffffffffffffff168073ffffffffffffffffffffffffffffffffffffffff1660808173ffffffffffffffffffffffffffffffffffffffff168152505050600073ffffffffffffffffffffffffffffffffffffffff168273ffffffffffffffffffffffffffffffffffffffff1603620001ae576040517f08c379a0000000000000000000000000000000000000000000000000000000008152600401620001a5906200072f565b60405180910390fd5b816000806101000a81548173ffffffffffffffffffffffffffffffffffffffff021916908373ffffffffffffffffffffffffffffffffffffffff160217905550600073ffffffffffffffffffffffffffffffffffffffff168173ffffffffffffffffffffffffffffffffffffffff1614620002355762000234816200023e60201b60201c565b5b505050620007c3565b3373ffffffffffffffffffffffffffffffffffffffff168173ffffffffffffffffffffffffffffffffffffffff1603620002af576040517f08c379a0000000000000000000000000000000000000000000000000000000008152600401620002a690620007a1565b60405180910390fd5b80600160006101000a81548173ffffffffffffffffffffffffffffffffffffffff021916908373ffffffffffffffffffffffffffffffffffffffff1602179055508073ffffffffffffffffffffffffffffffffffffffff1660008054906101000a900473ffffffffffffffffffffffffffffffffffffffff1673ffffffffffffffffffffffffffffffffffffffff167fed8889f560326eb138920d842192f0eb3dd22b4f139c87a2c57538e05bae127860405160405180910390a350565b600081519050919050565b7f4e487b7100000000000000000000000000000000000000000000000000000000600052604160045260246000fd5b7f4e487b7100000000000000000000000000000000000000000000000000000000600052602260045260246000fd5b60006002820490506001821680620003ef57607f821691505b602082108103620004055762000404620003a7565b5b50919050565b60008190508160005260206000209050919050565b60006020601f8301049050919050565b600082821b905092915050565b6000600883026200046f7fffffffffffffffffffffffffffffffffffffffffffffffffffffffffffffffff8262000430565b6200047b868362000430565b95508019841693508086168417925050509392505050565b6000819050919050565b6000819050919050565b6000620004c8620004c2620004bc8462000493565b6200049d565b62000493565b9050919050565b6000819050919050565b620004e483620004a7565b620004fc620004f382620004cf565b8484546200043d565b825550505050565b600090565b6200051362000504565b62000520818484620004d9565b505050565b5b8181101562000548576200053c60008262000509565b60018101905062000526565b5050565b601f821115620005975762000561816200040b565b6200056c8462000420565b810160208510156200057c578190505b620005946200058b8562000420565b83018262000525565b50505b505050565b600082821c905092915050565b6000620005bc600019846008026200059c565b1980831691505092915050565b6000620005d78383620005a9565b9150826002028217905092915050565b620005f2826200036d565b67ffffffffffffffff8111156200060e576200060d62000378565b5b6200061a8254620003d6565b620006278282856200054c565b600060209050601f8311600181146200065f57600084156200064a578287015190505b620006568582620005c9565b865550620006c6565b601f1984166200066f866200040b565b60005b82811015620006995784890151825560018201915060208501945060208101905062000672565b86831015620006b95784890151620006b5601f891682620005a9565b8355505b6001600288020188555050505b505050505050565b600082825260208201905092915050565b7f43616e6e6f7420736574206f776e657220746f207a65726f0000000000000000600082015250565b600062000717601883620006ce565b91506200072482620006df565b602082019050919050565b600060208201905081810360008301526200074a8162000708565b9050919050565b7f43616e6e6f74207472616e7366657220746f2073656c66000000000000000000600082015250565b600062000789601783620006ce565b9150620007968262000751565b602082019050919050565b60006020820190508181036000830152620007bc816200077a565b9050919050565b60805161257c620007e6600039600081816101a20152610d0c015261257c6000f3fe608060405234801561001057600080fd5b50600436106100935760003560e01c806379ba50971161006657806379ba5097146101205780638da5cb5b1461012a578063b1e2174914610148578063cf40f24914610166578063f2fde38b1461018457610093565b80630ca76175146100985780633944ea3a146100b45780633e3ede5a146100d25780634b0795a814610102575b600080fd5b6100b260048036038101906100ad9190611777565b6101a0565b005b6100bc610262565b6040516100c99190611881565b60405180910390f35b6100ec60048036038101906100e79190611944565b6102f0565b6040516100f9919061199c565b60405180910390f35b61010a610461565b6040516101179190611881565b60405180910390f35b6101286104ef565b005b610132610684565b60405161013f91906119f8565b60405180910390f35b6101506106ad565b60405161015d919061199c565b60405180910390f35b61016e6106b3565b60405161017b9190611a68565b60405180910390f35b61019e60048036038101906101999190611ab6565b610741565b005b7f000000000000000000000000000000000000000000000000000000000000000073ffffffffffffffffffffffffffffffffffffffff163373ffffffffffffffffffffffffffffffffffffffff1614610225576040517fc6829f8300000000000000000000000000000000000000000000000000000000815260040160405180910390fd5b610230838383610755565b827f85e1543bf2f84fe80c6badbce3648c8539ad1df4d2b3d822938ca0538be727e660405160405180910390a2505050565b6005805461026f90611b12565b80601f016020809104026020016040519081016040528092919081815260200182805461029b90611b12565b80156102e85780601f106102bd576101008083540402835291602001916102e8565b820191906000526020600020905b8154815290600101906020018083116102cb57829003601f168201915b505050505081565b60006102fa61080e565b61030261153b565b61039f6009805461031290611b12565b80601f016020809104026020016040519081016040528092919081815260200182805461033e90611b12565b801561038b5780601f106103605761010080835404028352916020019161038b565b820191906000526020600020905b81548152906001019060200180831161036e57829003601f168201915b50505050508261089e90919063ffffffff16565b6000600167ffffffffffffffff8111156103bc576103bb61164c565b5b6040519080825280602002602001820160405280156103ef57816020015b60608152602001906001900390816103da5790505b509050838160008151811061040757610406611b43565b5b602002602001018190525061042581836108af90919063ffffffff16565b61044f610431836108f7565b612057600860009054906101000a900463ffffffff16600354610d07565b60048190555060045492505050919050565b6006805461046e90611b12565b80601f016020809104026020016040519081016040528092919081815260200182805461049a90611b12565b80156104e75780601f106104bc576101008083540402835291602001916104e7565b820191906000526020600020905b8154815290600101906020018083116104ca57829003601f168201915b505050505081565b600160009054906101000a900473ffffffffffffffffffffffffffffffffffffffff1673ffffffffffffffffffffffffffffffffffffffff163373ffffffffffffffffffffffffffffffffffffffff161461057f576040517f08c379a000000000000000000000000000000000000000000000000000000000815260040161057690611bbe565b60405180910390fd5b60008060009054906101000a900473ffffffffffffffffffffffffffffffffffffffff169050336000806101000a81548173ffffffffffffffffffffffffffffffffffffffff021916908373ffffffffffffffffffffffffffffffffffffffff1602179055506000600160006101000a81548173ffffffffffffffffffffffffffffffffffffffff021916908373ffffffffffffffffffffffffffffffffffffffff1602179055503373ffffffffffffffffffffffffffffffffffffffff168173ffffffffffffffffffffffffffffffffffffffff167f8be0079c531659141344cd1fd0a4f28419497f9722a3daafe3b4186f6b6457e060405160405180910390a350565b60008060009054906101000a900473ffffffffffffffffffffffffffffffffffffffff16905090565b60045481565b600780546106c090611b12565b80601f01602080910402602001604051908101604052809291908181526020018280546106ec90611b12565b80156107395780601f1061070e57610100808354040283529160200191610739565b820191906000526020600020905b81548152906001019060200180831161071c57829003601f168201915b505050505081565b61074961080e565b61075281610dea565b50565b826004541461079b57826040517fd068bf5b000000000000000000000000000000000000000000000000000000008152600401610792919061199c565b60405180910390fd5b81600590816107aa9190611d94565b5080600690816107ba9190611d94565b5081600790816107ca9190611ec1565b50827f36e18f278c0bc4e053ceff5b445200072b19f094eabc06099380b90d3a1de297836005600660405161080193929190612017565b60405180910390a2505050565b60008054906101000a900473ffffffffffffffffffffffffffffffffffffffff1673ffffffffffffffffffffffffffffffffffffffff163373ffffffffffffffffffffffffffffffffffffffff161461089c576040517f08c379a0000000000000000000000000000000000000000000000000000000008152600401610893906120af565b60405180910390fd5b565b6108ab8260008084610f16565b5050565b60008151036108ea576040517ffe936cb700000000000000000000000000000000000000000000000000000000815260040160405180910390fd5b808260a001819052505050565b60606000610906610100610fc0565b90506109506040518060400160405280600c81526020017f636f64654c6f636174696f6e000000000000000000000000000000000000000081525082610fe790919063ffffffff16565b6109798360000151600281111561096a576109696120cf565b5b8261101090919063ffffffff16565b6109c16040518060400160405280600881526020017f6c616e677561676500000000000000000000000000000000000000000000000081525082610fe790919063ffffffff16565b6109ea836040015160008111156109db576109da6120cf565b5b8261101090919063ffffffff16565b610a326040518060400160405280600681526020017f736f75726365000000000000000000000000000000000000000000000000000081525082610fe790919063ffffffff16565b610a49836060015182610fe790919063ffffffff16565b60008360a00151511115610aff57610a9f6040518060400160405280600481526020017f617267730000000000000000000000000000000000000000000000000000000081525082610fe790919063ffffffff16565b610aa881611060565b60005b8360a0015151811015610af457610ae98460a001518281518110610ad257610ad1611b43565b5b602002602001015183610fe790919063ffffffff16565b806001019050610aab565b50610afe81611088565b5b60008360800151511115610c405760006002811115610b2157610b206120cf565b5b83602001516002811115610b3857610b376120cf565b5b03610b6f576040517fa80d31f700000000000000000000000000000000000000000000000000000000815260040160405180910390fd5b610bb76040518060400160405280600f81526020017f736563726574734c6f636174696f6e000000000000000000000000000000000081525082610fe790919063ffffffff16565b610be083602001516002811115610bd157610bd06120cf565b5b8261101090919063ffffffff16565b610c286040518060400160405280600781526020017f736563726574730000000000000000000000000000000000000000000000000081525082610fe790919063ffffffff16565b610c3f8360800151826110b090919063ffffffff16565b5b60008360c00151511115610cf657610c966040518060400160405280600981526020017f627974657341726773000000000000000000000000000000000000000000000081525082610fe790919063ffffffff16565b610c9f81611060565b60005b8360c0015151811015610ceb57610ce08460c001518281518110610cc957610cc8611b43565b5b6020026020010151836110b090919063ffffffff16565b806001019050610ca2565b50610cf581611088565b5b806000015160000151915050919050565b6000807f000000000000000000000000000000000000000000000000000000000000000073ffffffffffffffffffffffffffffffffffffffff1663461d27628688600188886040518663ffffffff1660e01b8152600401610d6c95949392919061215d565b6020604051808303816000875af1158015610d8b573d6000803e3d6000fd5b505050506040513d601f19601f82011682018060405250810190610daf91906121cc565b9050807f1131472297a800fee664d1d89cfa8f7676ff07189ecc53f80bbb5f4969099db860405160405180910390a280915050949350505050565b3373ffffffffffffffffffffffffffffffffffffffff168173ffffffffffffffffffffffffffffffffffffffff1603610e58576040517f08c379a0000000000000000000000000000000000000000000000000000000008152600401610e4f90612245565b60405180910390fd5b80600160006101000a81548173ffffffffffffffffffffffffffffffffffffffff021916908373ffffffffffffffffffffffffffffffffffffffff1602179055508073ffffffffffffffffffffffffffffffffffffffff1660008054906101000a900473ffffffffffffffffffffffffffffffffffffffff1673ffffffffffffffffffffffffffffffffffffffff167fed8889f560326eb138920d842192f0eb3dd22b4f139c87a2c57538e05bae127860405160405180910390a350565b6000815103610f51576040517f22ce3edd00000000000000000000000000000000000000000000000000000000815260040160405180910390fd5b8284600001906002811115610f6957610f686120cf565b5b90816002811115610f7d57610f7c6120cf565b5b815250508184604001906000811115610f9957610f986120cf565b5b90816000811115610fad57610fac6120cf565b5b8152505080846060018190525050505050565b610fc86115ad565b610fd68160000151836110d9565b506000816020018181525050919050565b610ff48260038351611152565b61100b8183600001516112fb90919063ffffffff16565b505050565b61103260026005600660ff16901b17836000015161131790919063ffffffff16565b5061105c82826040516020016110489190612274565b6040516020818303038152906040526110b0565b5050565b61106b816004611381565b60018160200181815161107e91906122be565b9150818152505050565b611093816007611381565b6001816020018181516110a691906122f2565b9150818152505050565b6110bd8260028351611152565b6110d48183600001516112fb90919063ffffffff16565b505050565b6110e16115cd565b60006020836110f09190612355565b1461111c576020826111029190612355565b602061110e91906122f2565b8261111991906122be565b91505b81836020018181525050604051808452600081528281016020018181101561114357600080fd5b80604052505082905092915050565b60178167ffffffffffffffff161161118d576111878160058460ff16901b60ff1617846000015161131790919063ffffffff16565b506112f6565b60ff8167ffffffffffffffff16116111eb576111c0601860058460ff16901b17846000015161131790919063ffffffff16565b506111e58167ffffffffffffffff16600185600001516113a79092919063ffffffff16565b506112f5565b61ffff8167ffffffffffffffff161161124a5761121f601960058460ff16901b17846000015161131790919063ffffffff16565b506112448167ffffffffffffffff16600285600001516113a79092919063ffffffff16565b506112f4565b63ffffffff8167ffffffffffffffff16116112ab57611280601a60058460ff16901b17846000015161131790919063ffffffff16565b506112a58167ffffffffffffffff16600485600001516113a79092919063ffffffff16565b506112f3565b6112cc601b60058460ff16901b17846000015161131790919063ffffffff16565b506112f18167ffffffffffffffff16600885600001516113a79092919063ffffffff16565b505b5b5b5b505050565b6113036115cd565b61130f83838451611434565b905092915050565b61131f6115cd565b60008360000151519050600060018261133891906122be565b90508460200151821061135c5761135b856002836113569190612386565b611517565b5b84516020838201018581538151831115611374578282525b5050849250505092915050565b6113a2601f60058360ff16901b17836000015161131790919063ffffffff16565b505050565b6113af6115cd565b60008460000151519050600081846113c791906122be565b905085602001518111156113ec576113eb866002836113e69190612386565b611517565b5b60006001856101006113fe91906124fb565b61140891906122f2565b905086518281018783198251161781528151841115611425578382525b50508693505050509392505050565b61143c6115cd565b825182111561144a57600080fd5b600084600001515190506000838261146291906122be565b9050856020015181111561148757611486866002836114819190612386565b611517565b5b600080875180518560208301019350808511156114a2578482525b60208901925050505b602086106114e957805182526020826114c491906122be565b91506020816114d391906122be565b90506020866114e291906122f2565b95506114ab565b60006001876020036101000a0390508019825116818451168181178552505050879450505050509392505050565b60008260000151905061152a83836110d9565b5061153583826112fb565b50505050565b6040518060e001604052806000600281111561155a576115596120cf565b5b815260200160006002811115611573576115726120cf565b5b815260200160008081111561158b5761158a6120cf565b5b8152602001606081526020016060815260200160608152602001606081525090565b60405180604001604052806115c06115cd565b8152602001600081525090565b604051806040016040528060608152602001600081525090565b6000604051905090565b600080fd5b600080fd5b6000819050919050565b61160e816115fb565b811461161957600080fd5b50565b60008135905061162b81611605565b92915050565b600080fd5b600080fd5b6000601f19601f8301169050919050565b7f4e487b7100000000000000000000000000000000000000000000000000000000600052604160045260246000fd5b6116848261163b565b810181811067ffffffffffffffff821117156116a3576116a261164c565b5b80604052505050565b60006116b66115e7565b90506116c2828261167b565b919050565b600067ffffffffffffffff8211156116e2576116e161164c565b5b6116eb8261163b565b9050602081019050919050565b82818337600083830152505050565b600061171a611715846116c7565b6116ac565b90508281526020810184848401111561173657611735611636565b5b6117418482856116f8565b509392505050565b600082601f83011261175e5761175d611631565b5b813561176e848260208601611707565b91505092915050565b6000806000606084860312156117905761178f6115f1565b5b600061179e8682870161161c565b935050602084013567ffffffffffffffff8111156117bf576117be6115f6565b5b6117cb86828701611749565b925050604084013567ffffffffffffffff8111156117ec576117eb6115f6565b5b6117f886828701611749565b9150509250925092565b600081519050919050565b600082825260208201905092915050565b60005b8381101561183c578082015181840152602081019050611821565b60008484015250505050565b600061185382611802565b61185d818561180d565b935061186d81856020860161181e565b6118768161163b565b840191505092915050565b6000602082019050818103600083015261189b8184611848565b905092915050565b600067ffffffffffffffff8211156118be576118bd61164c565b5b6118c78261163b565b9050602081019050919050565b60006118e76118e2846118a3565b6116ac565b90508281526020810184848401111561190357611902611636565b5b61190e8482856116f8565b509392505050565b600082601f83011261192b5761192a611631565b5b813561193b8482602086016118d4565b91505092915050565b60006020828403121561195a576119596115f1565b5b600082013567ffffffffffffffff811115611978576119776115f6565b5b61198484828501611916565b91505092915050565b611996816115fb565b82525050565b60006020820190506119b1600083018461198d565b92915050565b600073ffffffffffffffffffffffffffffffffffffffff82169050919050565b60006119e2826119b7565b9050919050565b6119f2816119d7565b82525050565b6000602082019050611a0d60008301846119e9565b92915050565b600081519050919050565b600082825260208201905092915050565b6000611a3a82611a13565b611a448185611a1e565b9350611a5481856020860161181e565b611a5d8161163b565b840191505092915050565b60006020820190508181036000830152611a828184611a2f565b905092915050565b611a93816119d7565b8114611a9e57600080fd5b50565b600081359050611ab081611a8a565b92915050565b600060208284031215611acc57611acb6115f1565b5b6000611ada84828501611aa1565b91505092915050565b7f4e487b7100000000000000000000000000000000000000000000000000000000600052602260045260246000fd5b60006002820490506001821680611b2a57607f821691505b602082108103611b3d57611b3c611ae3565b5b50919050565b7f4e487b7100000000000000000000000000000000000000000000000000000000600052603260045260246000fd5b7f4d7573742062652070726f706f736564206f776e657200000000000000000000600082015250565b6000611ba8601683611a1e565b9150611bb382611b72565b602082019050919050565b60006020820190508181036000830152611bd781611b9b565b9050919050565b60008190508160005260206000209050919050565b60006020601f8301049050919050565b600082821b905092915050565b600060088302611c407fffffffffffffffffffffffffffffffffffffffffffffffffffffffffffffffff82611c03565b611c4a8683611c03565b95508019841693508086168417925050509392505050565b6000819050919050565b6000819050919050565b6000611c91611c8c611c8784611c62565b611c6c565b611c62565b9050919050565b6000819050919050565b611cab83611c76565b611cbf611cb782611c98565b848454611c10565b825550505050565b600090565b611cd4611cc7565b611cdf818484611ca2565b505050565b5b81811015611d0357611cf8600082611ccc565b600181019050611ce5565b5050565b601f821115611d4857611d1981611bde565b611d2284611bf3565b81016020851015611d31578190505b611d45611d3d85611bf3565b830182611ce4565b50505b505050565b600082821c905092915050565b6000611d6b60001984600802611d4d565b1980831691505092915050565b6000611d848383611d5a565b9150826002028217905092915050565b611d9d82611802565b67ffffffffffffffff811115611db657611db561164c565b5b611dc08254611b12565b611dcb828285611d07565b600060209050601f831160018114611dfe5760008415611dec578287015190505b611df68582611d78565b865550611e5e565b601f198416611e0c86611bde565b60005b82811015611e3457848901518255600182019150602085019450602081019050611e0f565b86831015611e515784890151611e4d601f891682611d5a565b8355505b6001600288020188555050505b505050505050565b60008190508160005260206000209050919050565b601f821115611ebc57611e8d81611e66565b611e9684611bf3565b81016020851015611ea5578190505b611eb9611eb185611bf3565b830182611ce4565b50505b505050565b611eca82611a13565b67ffffffffffffffff811115611ee357611ee261164c565b5b611eed8254611b12565b611ef8828285611e7b565b600060209050601f831160018114611f2b5760008415611f19578287015190505b611f238582611d78565b865550611f8b565b601f198416611f3986611e66565b60005b82811015611f6157848901518255600182019150602085019450602081019050611f3c565b86831015611f7e5784890151611f7a601f891682611d5a565b8355505b6001600288020188555050505b505050505050565b60008154611fa081611b12565b611faa818661180d565b94506001821660008114611fc55760018114611fdb5761200e565b60ff19831686528115156020028601935061200e565b611fe485611bde565b60005b8381101561200657815481890152600182019150602081019050611fe7565b808801955050505b50505092915050565b600060608201905081810360008301526120318186611a2f565b905081810360208301526120458185611f93565b905081810360408301526120598184611f93565b9050949350505050565b7f4f6e6c792063616c6c61626c65206279206f776e657200000000000000000000600082015250565b6000612099601683611a1e565b91506120a482612063565b602082019050919050565b600060208201905081810360008301526120c88161208c565b9050919050565b7f4e487b7100000000000000000000000000000000000000000000000000000000600052602160045260246000fd5b600067ffffffffffffffff82169050919050565b61211b816120fe565b82525050565b600061ffff82169050919050565b61213881612121565b82525050565b600063ffffffff82169050919050565b6121578161213e565b82525050565b600060a0820190506121726000830188612112565b81810360208301526121848187611848565b9050612193604083018661212f565b6121a0606083018561214e565b6121ad608083018461198d565b9695505050505050565b6000815190506121c681611605565b92915050565b6000602082840312156121e2576121e16115f1565b5b60006121f0848285016121b7565b91505092915050565b7f43616e6e6f74207472616e7366657220746f2073656c66000000000000000000600082015250565b600061222f601783611a1e565b915061223a826121f9565b602082019050919050565b6000602082019050818103600083015261225e81612222565b9050919050565b61226e81611c62565b82525050565b60006020820190506122896000830184612265565b92915050565b7f4e487b7100000000000000000000000000000000000000000000000000000000600052601160045260246000fd5b60006122c982611c62565b91506122d483611c62565b92508282019050808211156122ec576122eb61228f565b5b92915050565b60006122fd82611c62565b915061230883611c62565b92508282039050818111156123205761231f61228f565b5b92915050565b7f4e487b7100000000000000000000000000000000000000000000000000000000600052601260045260246000fd5b600061236082611c62565b915061236b83611c62565b92508261237b5761237a612326565b5b828206905092915050565b600061239182611c62565b915061239c83611c62565b92508282026123aa81611c62565b915082820484148315176123c1576123c061228f565b5b5092915050565b60008160011c9050919050565b6000808291508390505b600185111561241f578086048111156123fb576123fa61228f565b5b600185161561240a5780820291505b8081029050612418856123c8565b94506123df565b94509492505050565b60008261243857600190506124f4565b8161244657600090506124f4565b816001811461245c576002811461246657612495565b60019150506124f4565b60ff8411156124785761247761228f565b5b8360020a91508482111561248f5761248e61228f565b5b506124f4565b5060208310610133831016604e8410600b84101617156124ca5782820a9050838111156124c5576124c461228f565b5b6124f4565b6124d784848460016123d5565b925090508184048111156124ee576124ed61228f565b5b81810290505b9392505050565b600061250682611c62565b915061251183611c62565b925061253e7fffffffffffffffffffffffffffffffffffffffffffffffffffffffffffffffff8484612428565b90509291505056fea2646970667358221220a603940f00d788a135becab53984fd7c15bfd46828263e47ea9179bb5839d33664736f6c63430008180033636f6e737420706172616d203d20617267735b305d3b636f6e737420617069526573706f6e7365203d2061776169742046756e6374696f6e732e6d616b654874747052657175657374287b75726c3a206068747470733a2f2f6170692e6a736f6e62696e2e696f2f76332f622f247b706172616d7d2f607d293b69662028617069526573706f6e73652e6572726f7229207b7468726f77204572726f72282752657175657374206661696c656427293b7d636f6e7374207b2064617461207d203d20617069526573706f6e73653b636f6e7374207265746f726e6f203d202727202b20646174612e7265636f72642e526174696e67202b20277c27202b204a534f4e2e737472696e6769667928646174612e7265636f72642e506172746e657273293b72657475726e2046756e6374696f6e732e656e636f6465537472696e67287265746f726e6f293b",
  "linkReferences": {},
  "deployedLinkReferences": {}
}